S017000053657269616C427574746F6E4C45442E737265635C
S11300000C9448000C945A000C945A000C945A0016
S11300100C945A000C945A000C945A000C945A00F4
S11300200C945A000C945A000C945A000C945A00E4
S11300300C945A000C945A000C945A000C945A00D4
S11300400C945A000C945A000C945A000C945A00C4
S11300500C945A000C945A000C945A000C945A00B4
S11300600C945A000C945A000C945A000C945A00A4
S11300700C945A000C945A000C945A000C945A0094
S11300800C945A000C945A000C945A000C945A0084
S113009011241FBECFEFCDBFDFE3DEBF28E3A0E016
S11300A0B8E301C01D92AB30B207E1F70E94DE0154
S11300B00C9402020C94000080910238813081F08B
S11300C018F08230C1F00895109205381092073864
S11300D080910A388823A1F081E080930238089542
S11300E081E08093073880910A38811109C082E049
S11300F080930238089581E0809305381092023885
S1130100089580910138813081F018F08230C1F077
S11301100895109204381092063880910938882383
S1130120A1F081E080930138089581E0809306383E
S113013080910938811109C082E0809301380895C3
S113014081E080930438109201380895809100383A
S1130150813071F018F08230C1F0089510920338A4
S1130160809108388823B1F081E0809300380895A5
S113017081E0809307388093063880910838811194
S113018009C082E080930038089581E080930338A9
S11301901092003808950E945C000E9481000E9421
S11301A0A60008950F931F93A09122110A2E000C0C
S11301B0BB0BBC5F27E534E00E94EC018B019C0182
S11301C0992324F401501C4F2F4F3F4FD901C801EC
S11301D0072E7AE0B595A795979587957A95D1F7E7
S11301E0702DE0E2F8E080879187A0E4B4E081E03C
S11301F011968C93119782E012968C9380EC8683EF
S113020083E087831F910F9108959091240895FFAF
S1130210FCCF809322080895EF92FF920F931F93CF
S1130220CF93DF937C01FC0101900020E9F7319723
S11302308F01081B190BC0E0D0E007C0F701EC0FD9
S1130240FD1F80810E9405012196C017D107B0F3DC
S1130250DF91CF911F910F91FF90EF900895E0EA05
S1130260F4E091E0918382E081839683868308950C
S113027021E030E002C0220F331F8A95E2F7209379
S1130280A504089521E030E002C0220F331F8A95AF
S1130290E2F72093A604089580910738882321F07B
S11302A080E00E94380103C080E00E9442018091F6
S11302B00638882321F081E00E94380103C081E0E0
S11302C00E94420180910538882321F08BE094E458
S11302D00E940C0180910438882321F086E294E482
S11302E00E940C0180910338882321F081E494E476
S11302F00E940C010895E0E0F6E085E0808380E14F
S113030081830895813041F018F0823049F00895D6
S113031081E08093060608958EE080930606089592
S113032084E08093060608950E94820181E0809310
S1130330080601C0A89580910B068823D9F3809103
S1130340100690911106813F910510F081E0089507
S113035080E00895CF93DF9380E00E949401C82F3A
S113036081E00E949401D82F82E00E949401CC2362
S113037041F0D11106C0811104C081E080930A3894
S11303801AC0C11108C0DD2331F0811104C081E01D
S11303908093093810C0C11108C0D11106C0882348
S11303A021F081E08093083806C010920A38109238
S11303B0093810920838DF91CF9108950E94D20035
S11303C00E942F010E947B01A8950E94AA010E940D
S11303D0CB000E944C01F8CF0E94F301B7FF0895AF
S11303E0821B930B0895A29FB001B39FC001A39FEA
S11303F0700D811D1124911DB29F700D811D11245A
S10B0400911D0895F894FFCF4B
S113040825640049474E5F3120627574746F6E200D
S113041877617320707265737365640D0A004947C8
S11304284E5F3220627574746F6E2077617320702A
S11304387265737365640D0A00484F524E206275E5
S113044874746F6E2077617320707265737365645A
S10604580D0A0086
S9030000FC
