:100000000C9448000C945A000C945A000C945A001A
:100010000C945A000C945A000C945A000C945A00F8
:100020000C945A000C945A000C945A000C945A00E8
:100030000C945C000C945A000C945A000C945A00D6
:100040000C945A000C945A000C945A000C945A00C8
:100050000C945A000C945A000C945A000C945A00B8
:100060000C945A000C945A000C945A000C945A00A8
:100070000C945A000C945A000C945A000C945A0098
:100080000C945A000C945A000C945A000C945A0088
:1000900011241FBECFEFCDBFDFE3DEBF28E3A0E01A
:1000A000B8E301C01D92A431B207E1F70E947D03BD
:1000B0000C9492060C9400001F920F920FB60F92B0
:1000C00011248F939F9381E08093860A8091033857
:1000D00090910438019680930338909304389F914F
:1000E0008F910F900FBE0F901F901895809102383E
:1000F000813081F018F08230C1F0089510920E38EE
:1001000010921038809113388823A1F081E08093F9
:100110000238089581E0809310388091133881115E
:1001200009C082E080930238089581E080930E3800
:1001300010920238089580910138813081F018F0D2
:100140008230C1F0089510920D3810920F388091CE
:1001500012388823A1F081E080930138089581E06E
:1001600080930F3880911238811109C082E080930A
:100170000138089581E080930D3810920138089578
:1001800080910038813071F018F08230C1F008950C
:1001900010920C38809111388823B1F081E080935F
:1001A0000038089581E08093103880930F38809153
:1001B0001138811109C082E080930038089581E0F0
:1001C00080930C3810920038089580910A38882363
:1001D00021F081E080930738089510920738089540
:1001E00080910938882321F081E0809306380895B2
:1001F00010920638089580910838882321F081E014
:1002000080930538089510920538089580910B3831
:10021000882339F00E94E5000E94F0000E94FB0054
:1002200008950E9476000E949B000E94C0000895DD
:100230000F931F93A09122110A2E000CBB0BBC5FE1
:1002400027E534E00E9490038B019C01992324F45C
:1002500001501C4F2F4F3F4FD901C801072E7AE0A4
:10026000B595A795979587957A95D1F7702DE0E28A
:10027000F8E080879187A0E4B4E081E011968C9348
:10028000119782E012968C9380EC868383E08783BB
:100290001F910F9108959091240895FFFCCF8093B2
:1002A000220808951F93CF93DF93CDB7DEB72A9727
:1002B000CDBFDEBF9F938F9388E29DE49F938F9382
:1002C000CE0101969F938F930E94AE030F900F90E3
:1002D0000F900F900F900F9010E003C00E944B0101
:1002E0001F5FE1E0F0E0EC0FFD1FE10FF11D8081E9
:1002F0008111F4CF2A96CDBFDEBFDF91CF911F9140
:100300000895EF92FF920F931F93CF93DF937C0199
:10031000FC0101900020E9F731978F01081B190BB0
:10032000C0E0D0E007C0F701EC0FFD1F80810E9404
:100330004B012196C017D107B0F3DF91CF911F91E8
:100340000F91FF90EF90089501C0A8958091240827
:100350008823DCF7809120080895A8950E94A401C5
:1003600090E00E94A6039C01873421F0823511F0B1
:10037000893599F733272235310539F0293531058B
:10038000A1F027343105C9F408C081E080930A3810
:100390001092093810920838089581E08093093846
:1003A00010920A3810920838089581E08093083836
:1003B0001092093810920A38089510920A38109253
:1003C0000938109208380895E0EAF4E091E091834A
:1003D00082E0818396838683089521E030E002C025
:1003E000220F331F8A95E2F72093A504089521E098
:1003F00030E002C0220F331F8A95E2F72093A60453
:100400000895E0EAF4E0948121E030E002C0220F98
:10041000331F8A95E2F7292724830895E0E0F6E068
:1004200085E0808380E181830895813041F018F078
:10043000823049F0089581E08093060608958EE0A9
:1004400080930606089584E08093060608950E942E
:10045000150281E08093080601C0A89580910B06E3
:100460008823D9F38091100690911106813F910560
:1004700010F081E0089580E00895CF93DF9380E04D
:100480000E942702C82F81E00E942702D82F82E015
:100490000E942702CC2341F0D11106C0811104C073
:1004A00081E08093133836C0C11108C0DD2331F0DC
:1004B000811104C081E0809312382CC0C11108C0A2
:1004C000D11106C0882321F081E08093113822C029
:1004D000CC23D1F0DD23C1F08823B1F081E08093FB
:1004E0000B3810921338109212381092113880E0A5
:1004F0000E94F70181E00E94F7018BE29DE40E94D7
:1005000081010E94AD0106C010921338109212387A
:1005100010921138DF91CF9108950E943D02089505
:100520009C01E0E8FAE090819E7F908324873587E4
:1005300081E085830895E0E8FAE08081816080832E
:100540000895E0E8FAE080818E7F808308958091AD
:100550000B38882309F4A2C080910738882379F1E9
:1005600080E00E9401020E949B028FE59DE40E94B0
:1005700081010E94A4010E94A10280E00E94010268
:1005800087E89DE40E94810120910338309104386E
:10059000C901880F991F220F331F220F331F220F0B
:1005A000331F820F931F0E94520181EA9DE40E9433
:1005B000810110920338109204381092073880910C
:1005C0000638882379F181E00E9401020E949B0293
:1005D00081EB9DE40E9481010E94A4010E94A1027E
:1005E00081E00E9401028BED9DE40E948101209137
:1005F000033830910438C901880F991F220F331F27
:10060000220F331F220F331F820F931F0E945201AC
:1006100081EA9DE40E94810110920338109204380F
:1006200010920638809105388823A9F181E00E9454
:10063000010280E00E9401020E949B0287EF9DE47C
:100640000E9481010E94A4010E94A10281E00E94F7
:10065000010280E00E94010282E29EE40E94810188
:100660002091033830910438C901880F991F220F57
:10067000331F220F331F220F331F820F931F0E943D
:10068000520181EA9DE40E94810110920338109288
:1006900004381092053810920B3808958091103864
:1006A000882321F080E00E94ED0103C080E00E94D9
:1006B000F70180910F38882321F081E00E94ED013D
:1006C00003C081E00E94F70180910E38882321F059
:1006D0008FE39EE40E94810180910D38882321F0F0
:1006E0008AE59EE40E94810180910C38882321F0E4
:1006F00085E79EE40E94810108950E9418010E94EE
:10070000E4010E940E0288E298E60E94900278942A
:10071000A8950E948D020E9406010E94A702F8CFB0
:100720000E949703B7FF0895821B930B0895A29F21
:10073000B001B39FC001A39F700D811D1124911DB5
:10074000B29F700D811D1124911D0895911108957E
:1007500081568A5108F4805285580895AEE0B0E081
:10076000E4EBF3E00C946F060D891E8986E08C8320
:1007700009831A838FEF9FE78D839E83AE01475EC7
:100780005F4F6F89788DCE0101960E94D003EF8173
:10079000F885E00FF11F10822E96E4E00C94880695
:1007A000ABE0B0E0E6EDF3E00C9461066C017B0198
:1007B0008A01FC0116821782838181FFCCC1CE01A0
:1007C00001963C01F6019381F70193FD859193FF1A
:1007D00081917F01882309F4BAC1853239F493FDF0
:1007E000859193FF81917F01853229F4B60190E0D4
:1007F0000E94C705E7CF912C212C312CFFE1F31586
:10080000D8F08B3279F038F4803279F08332A1F469
:10081000232D20611DC08D3261F0803369F4232DBA
:10082000216016C0832D8260382EE32DE4603E2EB9
:100830002AC0F32DF8601DC037FC2DC020ED280F15
:100840002A3040F08E32B9F436FC81C1232D206469
:10085000322E19C036FE06C08AE0989E200D112463
:10086000922E11C0EAE02E9E200D1124222EF32D8F
:10087000F0623F2E08C08C3621F4832D8068382E1C
:1008800002C0883641F4F70193FD859193FF819171
:100890007F018111B3CF982F9F7D9554933028F419
:1008A0000C5F1F4F9FE399830DC0833631F0833770
:1008B00071F0833509F059C021C0F8018081898326
:1008C0000E5F1F4F88248394912C530113C028017D
:1008D000F2E04F0E511CF801A080B18036FE03C03B
:1008E000692D70E002C06FEF7FEFC5010E94BC056B
:1008F0004C018201F32DFF773F2E16C0280122E024
:10090000420E511CF801A080B18036FE03C0692D53
:1009100070E002C06FEF7FEFC5010E94B1054C018E
:10092000F32DF0683F2E820133FC1BC0822D90E036
:1009300088169906B0F4B60180E290E00E94C705DF
:100940002A94F4CFF50137FC859137FE81915F0140
:10095000B60190E00E94C70521102A9421E0821A76
:1009600091088114910471F7E8C0843611F089363A
:1009700041F5F80137FE07C0608171818281938162
:100980000C5F1F4F08C060817181072E000C880B1F
:10099000990B0E5F1F4FF32DFF763F2E97FF09C077
:1009A00090958095709561957F4F8F4F9F4FF06820
:1009B0003F2E2AE030E0A3010E940306882E86180D
:1009C00045C0853731F4232D2F7EB22E2AE030E04A
:1009D00025C0932D997FB92E8F36C1F018F4883534
:1009E00079F0B5C0803719F0883721F0B0C0E92F11
:1009F000E061BE2EB4FE0DC0FB2DF460BF2E09C019
:100A000034FE0AC0292F2660B22E06C028E030E04E
:100A100005C020E130E002C020E132E0F801B7FE7D
:100A200007C060817181828193810C5F1F4F06C076
:100A30006081718180E090E00E5F1F4FA3010E94F2
:100A40000306882E8618FB2DFF773F2E36FE0DC03D
:100A5000232D2E7FA22E891458F434FE0BC032FCB5
:100A600009C0832D8E7EA82E05C0B82CA32C03C0F0
:100A7000B82C01C0B92CA4FE0FC0FE01E80DF11D79
:100A80008081803321F49A2D997EA92E09C0A2FE7F
:100A900006C0B394B39404C08A2D867809F0B39449
:100AA000A3FC11C0A0FE06C0B21488F4280C922C3E
:100AB0009B180EC0B21460F4B60180E290E00E9470
:100AC000C705B394F7CFB21418F42B1802C0982CB2
:100AD000212CA4FE10C0B60180E390E00E94C7055F
:100AE000A2FE17C0A1FC03C088E790E002C088E521
:100AF00090E0B6010CC08A2D867859F0A1FE02C0A4
:100B00008BE201C080E2A7FC8DE2B60190E00E947A
:100B1000C705891438F4B60180E390E00E94C70548
:100B20009A94F7CF8A94F301E80DF11D8081B60104
:100B300090E00E94C7058110F5CF222009F442CE33
:100B4000B60180E290E00E94C7052A94F6CFF60134
:100B50008681978102C08FEF9FEF2B96E2E10C9484
:100B60007A06FC010590615070400110D8F780951D
:100B700090958E0F9F1F0895FC0161507040019069
:100B80000110D8F7809590958E0F9F1F08950F93B1
:100B90001F93CF93DF93FB01238121FD03C08FEFD0
:100BA0009FEF2CC022FF16C04681578124813581DA
:100BB0004217530744F4A081B1819D012F5F3F4F3D
:100BC000208331838C93268137812F5F3F4F26838B
:100BD000378314C08B01EC01FB010084F185E02D0B
:100BE0000995892BE1F6D80116968D919C9117975E
:100BF000019616968D939C931797CE01DF91CF9116
:100C00001F910F910895FA01AA27283051F1203140
:100C100081F1E8946F936E7F6E5F7F4F8F4F9F4F90
:100C2000AF4FB1E03ED0B4E03CD0670F781F891FD2
:100C30009A1FA11D680F791F8A1F911DA11D6A0FA0
:100C4000711D811D911DA11D20D009F468943F9153
:100C50002AE0269F11243019305D3193DEF6CF0152
:100C60000895462F4770405D4193B3E00FD0C9F718
:100C7000F6CF462F4F70405D4A3318F0495D31FD85
:100C80004052419302D0A9F7EACFB4E0A6959795D8
:100C9000879577956795BA95C9F7009761057105AE
:100CA00008959B01AC010A2E0694579547953795F8
:100CB0002795BA95C9F7620F731F841F951FA01D52
:100CC00008952F923F924F925F926F927F928F92F0
:100CD0009F92AF92BF92CF92DF92EF92FF920F93CB
:100CE0001F93CF93DF93CDB7DEB7CA1BDB0BCDBF0E
:100CF000DEBF09942A88398848885F846E847D84A1
:100D00008C849B84AA84B984C884DF80EE80FD80B3
:100D10000C811B81AA81B981CE0FD11DCDBFDEBF51
:080D2000ED010895F894FFCFE6
:100D28002564004769766520746865206C6574746D
:100D38006572206F6620746865206C696768742026
:100D4800796F752077616E7420746F207475726E78
:100D5800206F6E3A0D0A00507265737320616E79C8
:100D6800206B657920746F207475726E20746865C5
:100D780020726564204C4544206F66660A0D005257
:100D88006564204C454420776173206F6E20666F40
:100D9800722061626F75742000206D696C6C6973D4
:100DA80065636F6E64730A0D00507265737320611A
:100DB8006E79206B657920746F207475726E20745B
:100DC800686520677265656E204C4544206F6666CD
:100DD8000A0D00477265656E204C454420776173A3
:100DE800206F6E20666F722061626F7574200050EC
:100DF8007265737320616E79206B657920746F203A
:100E08007475726E207468652079656C6C6F7720D4
:100E18004C4544206F66660A0D0059656C6C6F7707
:100E2800204C454420776173206F6E20666F7220D6
:100E380061626F7574200049474E5F312062757496
:100E4800746F6E2077617320707265737365640DBB
:100E58000A0049474E5F3220627574746F6E2077BE
:100E6800617320707265737365640D0A00484F5290
:100E78004E20627574746F6E20776173207072658E
:070E8800737365640D0A009D
:00000001FF
