S017000053657269616C427574746F6E4C45442E737265635C
S11300000C9448000C945A000C945A000C945A0016
S11300100C945A000C945A000C945A000C945A00F4
S11300200C945A000C945A000C945A000C945A00E4
S11300300C945A000C945A000C945A000C945A00D4
S11300400C945A000C945A000C945A000C945A00C4
S11300500C945A000C945A000C945A000C945A00B4
S11300600C945A000C945A000C945A000C945A00A4
S11300700C945A000C945A000C945A000C945A0094
S11300800C945A000C945A000C945A000C945A0084
S113009011241FBECFEFCDBFDFE3DEBF28E3A0E016
S11300A0B8E301C01D92A531B207E1F70E94F30243
S11300B00C94FB050C94000080910538813081F08C
S11300C018F08230C1F0089510920F381092113850
S11300D0809114388823A1F081E080930538089535
S11300E081E08093113880911438811109C082E035
S11300F080930538089581E080930F381092053875
S1130100089580910438813081F018F08230C1F074
S1130110089510920E381092103880911338882365
S1130120A1F081E080930438089581E08093103831
S113013080911338811109C082E0809304380895B6
S113014081E080930E38109204380895809103382A
S1130150813071F018F08230C1F0089510920D389A
S1130160809112388823B1F081E080930338089598
S113017081E0809311388093103880911238811176
S113018009C082E080930338089581E080930D389C
S113019010920338089580910238882319F0813031
S11301A059F008951092083880910B38882349F04B
S11301B081E080930238089581E08093083810929A
S11301C00238089580910138882319F0813059F05C
S11301D008951092073880910A38882349F081E005
S11301E080930138089581E0809307381092013894
S11301F0089580910038882319F0813059F00895CA
S11302001092063880910938882349F081E0809360
S11302100038089581E080930638109200380895DC
S113022080910C38882339F00E94CB000E94E200B0
S11302300E94F90008950E945C000E9481000E94BF
S1130240A60008950F931F93A09122110A2E000C6B
S1130250BB0BBC5F27E534E00E9401038B019C01CA
S1130260992324F401501C4F2F4F3F4FD901C8014B
S1130270072E7AE0B595A795979587957A95D1F746
S1130280702DE0E2F8E080879187A0E4B4E081E09B
S113029011968C93119782E012968C9380EC86834E
S11302A083E087831F910F9108959091240895FF0F
S11302B0FCCF8093220808951F93CF93DF93CDB78B
S11302C0DEB72A97CDBFDEBF1F928F938AEF9BE4E0
S11302D09F938F93CE0101969F938F930E94170350
S11302E00F900F900F900F900F900F9010E003C09D
S11302F00E9455011F5FE1E0F0E0EC0FFD1FE10FEC
S1130300F11D80818111F4CF2A96CDBFDEBFDF912C
S1130310CF911F910895EF92FF920F931F93CF9364
S1130320DF937C01FC0101900020E9F731978F01F4
S1130330081B190BC0E0D0E007C0F701EC0FFD1F4C
S113034080810E9455012196C017D107B0F3DF9137
S1130350CF911F910F91FF90EF9008958091240801
S11303608823E4F7809120080895A8950E94AE019F
S1130370873421F0823511F08935B9F7823529F0B7
S1130380893559F0873469F404C081E080930B38CF
S1130390089581E080930A38089581E080930938B4
S11303A0089510920B3810920A3810920938089563
S11303B0E0EAF4E091E0918382E08183968386838E
S11303C0089521E030E002C0220F331F8A95E2F73E
S11303D02093A504089521E030E002C0220F331FCA
S11303E08A95E2F72093A6040895E0EAF4E0948164
S11303F021E030E002C0220F331F8A95E2F729275B
S11304002483089580910C380E945C0180910C38FB
S11304108823C9F180910838882361F080E00E9424
S1130420F50101C0A8950E94AE018235D9F780E09C
S11304300E94F50180910738882361F081E00E94D1
S1130440F50101C0A8950E94AE018734D9F781E077
S11304500E94F50180910638882391F081E00E9482
S1130460F50180E00E94F50101C0A8950E94AE014B
S11304708935D9F781E00E94F50180E00E94F501F9
S113048010920C38089580911138882321F080E06F
S11304900E94E10103C080E00E94EB0180911038CA
S11304A0882321F081E00E94E10103C081E00E94E1
S11304B0EB0180910F38882321F08DEF9BE40E949B
S11304C08B0180910E38882321F088E19CE40E94FE
S11304D08B0180910D38882321F083E39CE40E94F2
S11304E08B010895E0E0F6E085E0808380E181837C
S11304F00895813041F018F0823049F0089581E088
S11305008093060608958EE080930606089584E09D
S11305108093060608950E94790281E0809308067C
S113052001C0A89580910B068823D9F38091100609
S113053090911106813F910510F081E0089580E0CB
S11305400895CF93DF9380E00E948B02C82F81E04F
S11305500E948B02D82F82E00E948B02CC2341F0B0
S1130560D11106C0811104C081E0809314382EC0DB
S1130570C11108C0DD2331F0811104C081E08093F2
S1130580133824C0C11108C0D11106C0882321F03A
S113059081E0809312381AC0CC2391F0DD2381F0DE
S11305A0882371F081E080930C38109214381092F3
S11305B01338109212388DE49CE40E948B0106C01B
S11305C0109214381092133810921238DF91CF9190
S11305D0089580910C38882319F00E94B50108957C
S11305E00E94A10208950E9422010E94D8010E9443
S11305F07202A8950E94E9020E9410010E94020260
S1130600F8CF0E940803B7FF0895821B930B089547
S1130610A29FB001B39FC001A39F700D811D11243F
S1130620911DB29F700D811D1124911D0895AEE09E
S1130630B0E0EDE1F3E00C94D8050D891E8986E065
S11306408C8309831A838FEF9FE78D839E83AE018A
S1130650475E5F4F6F89788DCE0101960E94390302
S1130660EF81F885E00FF11F10822E96E4E00C94E0
S1130670F105ABE0B0E0EFE3F3E00C94CA056C01E4
S11306807B018A01FC0116821782838181FFCCC120
S1130690CE0101963C01F6019381F70193FD85910A
S11306A093FF81917F01882309F4BAC1853239F41B
S11306B093FD859193FF81917F01853229F4B601E1
S11306C090E00E943005E7CF912C212C312CFFE1E2
S11306D0F315D8F08B3279F038F4803279F0833224
S11306E0A1F4232D20611DC08D3261F0803369F4A3
S11306F0232D216016C0832D8260382EE32DE46003
S11307003E2E2AC0F32DF8601DC037FC2DC020ED0D
S1130710280F2A3040F08E32B9F436FC81C1232DE3
S11307202064322E19C036FE06C08AE0989E200D41
S11307301124922E11C0EAE02E9E200D1124222EA7
S1130740F32DF0623F2E08C08C3621F4832D80688F
S1130750382E02C0883641F4F70193FD859193FF4A
S113076081917F018111B3CF982F9F7D9554933050
S113077028F40C5F1F4F9FE399830DC0833631F03B
S1130780833771F0833509F059C021C0F8018081A5
S113079089830E5F1F4F88248394912C530113C0C7
S11307A02801F2E04F0E511CF801A080B18036FE02
S11307B003C0692D70E002C06FEF7FEFC5010E9496
S11307C025054C018201F32DFF773F2E16C0280129
S11307D022E0420E511CF801A080B18036FE03C015
S11307E0692D70E002C06FEF7FEFC5010E941A050A
S11307F04C01F32DF0683F2E820133FC1BC0822D87
S113080090E088169906B0F4B60180E290E00E9468
S113081030052A94F4CFF50137FC859137FE819198
S11308205F01B60190E00E94300521102A9421E076
S1130830821A91088114910471F7E8C0843611F08A
S1130840893641F5F80137FE07C0608171818281E4
S113085093810C5F1F4F08C060817181072E000CCB
S1130860880B990B0E5F1F4FF32DFF763F2E97FFDA
S113087009C090958095709561957F4F8F4F9F4FDC
S1130880F0683F2E2AE030E0A3010E946C05882E18
S1130890861845C0853731F4232D2F7EB22E2AE0E9
S11308A030E025C0932D997FB92E8F36C1F018F40E
S11308B0883579F0B5C0803719F0883721F0B0C099
S11308C0E92FE061BE2EB4FE0DC0FB2DF460BF2EF7
S11308D009C034FE0AC0292F2660B22E06C028E0C3
S11308E030E005C020E130E002C020E132E0F80150
S11308F0B7FE07C060817181828193810C5F1F4FB5
S113090006C06081718180E090E00E5F1F4FA301FB
S11309100E946C05882E8618FB2DFF773F2E36FE2D
S11309200DC0232D2E7FA22E891458F434FE0BC043
S113093032FC09C0832D8E7EA82E05C0B82CA32CB2
S113094003C0B82C01C0B92CA4FE0FC0FE01E80DF1
S1130950F11D8081803321F49A2D997EA92E09C03E
S1130960A2FE06C0B394B39404C08A2D867809F01D
S1130970B394A3FC11C0A0FE06C0B21488F4280CE2
S1130980922C9B180EC0B21460F4B60180E290E081
S11309900E943005B394F7CFB21418F42B1802C098
S11309A0982C212CA4FE10C0B60180E390E00E9494
S11309B03005A2FE17C0A1FC03C088E790E002C086
S11309C088E590E0B6010CC08A2D867859F0A1FE26
S11309D002C08BE201C080E2A7FC8DE2B60190E088
S11309E00E943005891438F4B60180E390E00E9437
S11309F030059A94F7CF8A94F301E80DF11D8081B4
S1130A00B60190E00E9430058110F5CF222009F450
S1130A1042CEB60180E290E00E9430052A94F6CFDF
S1130A20F6018681978102C08FEF9FEF2B96E2E15A
S1130A300C94E305FC010590615070400110D8F757
S1130A40809590958E0F9F1F0895FC016150704012
S1130A5001900110D8F7809590958E0F9F1F0895EF
S1130A600F931F93CF93DF93FB01238121FD03C0D9
S1130A708FEF9FEF2CC022FF16C04681578124813F
S1130A8035814217530744F4A081B1819D012F5F42
S1130A903F4F208331838C93268137812F5F3F4FD3
S1130AA02683378314C08B01EC01FB010084F1859C
S1130AB0E02D0995892BE1F6D80116968D919C912C
S1130AC01797019616968D939C931797CE01DF91F5
S1130AD0CF911F910F910895FA01AA27283051F15F
S1130AE0203181F1E8946F936E7F6E5F7F4F8F4F5B
S1130AF09F4FAF4FB1E03ED0B4E03CD0670F781FBA
S1130B00891F9A1FA11D680F791F8A1F911DA11D9E
S1130B106A0F711D811D911DA11D20D009F46894D7
S1130B203F912AE0269F11243019305D3193DEF67F
S1130B30CF010895462F4770405D4193B3E00FD035
S1130B40C9F7F6CF462F4F70405D4A3318F0495D20
S1130B5031FD4052419302D0A9F7EACFB4E0A69503
S1130B609795879577956795BA95C9F70097610525
S1130B70710508959B01AC010A2E0694579547957B
S1130B8037952795BA95C9F7620F731F841F951F70
S1130B90A01D08952F923F924F925F926F927F9281
S1130BA08F929F92AF92BF92CF92DF92EF92FF9279
S1130BB00F931F93CF93DF93CDB7DEB7CA1BDB0B25
S1130BC0CDBFDEBF09942A88398848885F846E8443
S1130BD07D848C849B84AA84B984C884DF80EE805D
S1130BE0FD800C811B81AA81B981CE0FD11DCDBF9F
S10D0BF0DEBFED010895F894FFCF75
S1130BFA25640049474E5F3120627574746F6E2014
S1130C0A77617320707265737365640D0A004947CE
S1130C1A4E5F3220627574746F6E20776173207030
S1130C2A7265737365640D0A00484F524E206275EB
S1130C3A74746F6E20776173207072657373656460
S1130C4A0D0A004769766520746865206C657474BA
S1130C5A6572206F6620746865206C696768742001
S1130C6A796F752077616E7420746F207475726E53
S10A0C7A206F6E3A0D0A0021
S9030000FC
