:100000000C9448000C9452000C9452000C94520032
:100010000C9452000C9452000C9452000C94520018
:100020000C9452000C9452000C9452000C94520008
:100030000C9452000C9452000C9452000C945200F8
:100040000C9452000C9452000C9452000C945200E8
:100050000C9452000C9452000C9452000C945200D8
:100060000C9452000C9452000C9452000C945200C8
:100070000C9452000C9452000C9452000C945200B8
:100080000C9452000C9452000C9452000C945200A8
:1000900011241FBECFEFCDBFDFE3DEBF0E948B0078
:1000A0000C94A8000C940000A09122110A2E000CC0
:1000B000BB0BBC5F27E534E00E949200DC01CB0162
:1000C0002AE0B595A795979587952A95D1F7E0E20F
:1000D000F8E080879187A0E4B4E081E011968C93EA
:1000E000119782E012968C9380EC868383E087835D
:1000F00008959091240895FD02C0A895FACF8093A9
:10010000220808958091240887FD02C0A895FACF9F
:100110008091200808950E9454000E9482000E944D
:100120007900FBCF0E949900B7FF0895821B930BC3
:100130000895A29FB001B39FC001A39F700D811DC0
:100140001124911DB29F700D811D1124911D0895E0
:04015000F894FFCF51
:00000001FF
