:100000000C9448000C9452000C9452000C94520032
:100010000C9452000C9452000C9452000C94520018
:100020000C9452000C9452000C9452000C94520008
:100030000C9452000C9452000C9452000C945200F8
:100040000C9452000C9452000C9452000C945200E8
:100050000C9452000C9452000C9452000C945200D8
:100060000C9452000C9452000C9452000C945200C8
:100070000C9452000C9452000C9452000C945200B8
:100080000C9452000C9452000C9452000C945200A8
:1000900011241FBECFEFCDBFDFE3DEBF0E94710092
:1000A0000C9478000C94000080912211E0E2F8E0BA
:1000B00087E594E080879187A0E4B4E081E0119621
:1000C0008C93119782E012968C9380EC868383E068
:1000D000878308959091240895FFFCCF8093220890
:1000E00008950E94540085E50E946A00A895FBCF00
:0400F000F894FFCFB2
:00000001FF
