:100000000C9448000C945A000C945A000C945A001A
:100010000C945A000C945A000C945A000C945A00F8
:100020000C945A000C945A000C945A000C945A00E8
:100030000C94D1000C945A000C945A000C945A0061
:100040000C945A000C945A000C945A000C945A00C8
:100050000C945A000C945A000C945A000C945A00B8
:100060000C945A000C945A000C945A000C945A00A8
:100070000C945A000C945A000C945A000C945A0098
:100080000C945A000C945A000C945A000C945A0088
:1000900011241FBECFEFCDBFDFE3DEBF28E3A0E01A
:1000A000B8E301C01D92A230B207E1F70E9410012F
:1000B0000C9416040C9400000F931F93A09122112E
:1000C0000A2E000CBB0BBC5F27E534E00E941C012C
:1000D0008B019C01992324F401501C4F2F4F3F4F5B
:1000E000D901C801072E7AE0B595A7959795879510
:1000F0007A95D1F7702DE0E2F8E080879187A0E44F
:10010000B4E081E011968C93119782E012968C9363
:1001100080EC868383E087831F910F9108959091EF
:10012000240895FFFCCF8093220808951F93CF9356
:10013000DF93CDB7DEB72A97CDBFDEBF1F928F9377
:1001400080E398E49F938F93CE0101969F938F93C2
:100150000E9432010F900F900F900F900F900F9010
:1001600010E003C00E948F001F5FE1E0F0E0EC0FA1
:10017000FD1FE10FF11D80818111F4CF2A96CDBFC3
:10018000DEBFDF91CF911F9108959C01E0E8FAE076
:1001900090819E7F908324873587808181608083D2
:1001A00008951F920F920FB60F9211242F933F9331
:1001B0004F935F936F937F938F939F93AF93BF936F
:1001C000EF93FF9381E08093860A809100388F5FE0
:1001D0008093003880910038843688F0109200387F
:1001E000809101388F5F80930138809101380E949F
:1001F00096008DE00E948F008AE00E948F00FF91A0
:10020000EF91BF91AF919F918F917F916F915F918E
:100210004F913F912F910F900FBE0F901F90189507
:100220000E945C0088E298E60E94C50081E080930D
:10023000850A7894A895FECF0E942301B7FF089500
:10024000821B930B0895A29FB001B39FC001A39F8F
:10025000700D811D1124911DB29F700D811D1124FF
:10026000911D0895AEE0B0E0E8E3F1E00C94F303F3
:100270000D891E8986E08C8309831A838FEF9FE79F
:100280008D839E83AE01475E5F4F6F89788DCE016F
:1002900001960E945401EF81F885E00FF11F108252
:1002A0002E96E4E00C940C04ABE0B0E0EAE5F1E05B
:1002B0000C94E5036C017B018A01FC011682178214
:1002C000838181FFCCC1CE0101963C01F60193816F
:1002D000F70193FD859193FF81917F01882309F4B4
:1002E000BAC1853239F493FD859193FF81917F01E5
:1002F000853229F4B60190E00E944B03E7CF912CA0
:10030000212C312CFFE1F315D8F08B3279F038F441
:10031000803279F08332A1F4232D20611DC08D320B
:1003200061F0803369F4232D216016C0832D826033
:10033000382EE32DE4603E2E2AC0F32DF8601DC058
:1003400037FC2DC020ED280F2A3040F08E32B9F452
:1003500036FC81C1232D2064322E19C036FE06C022
:100360008AE0989E200D1124922E11C0EAE02E9E64
:10037000200D1124222EF32DF0623F2E08C08C3662
:1003800021F4832D8068382E02C0883641F4F701AD
:1003900093FD859193FF81917F018111B3CF982FB8
:1003A0009F7D9554933028F40C5F1F4F9FE39983F2
:1003B0000DC0833631F0833771F0833509F059C0B1
:1003C00021C0F801808189830E5F1F4F88248394A8
:1003D000912C530113C02801F2E04F0E511CF8017B
:1003E000A080B18036FE03C0692D70E002C06FEFBF
:1003F0007FEFC5010E9440034C018201F32DFF777E
:100400003F2E16C0280122E0420E511CF801A080A8
:10041000B18036FE03C0692D70E002C06FEF7FEF40
:10042000C5010E9435034C01F32DF0683F2E820177
:1004300033FC1BC0822D90E088169906B0F4B601FB
:1004400080E290E00E944B032A94F4CFF50137FC40
:10045000859137FE81915F01B60190E00E944B03C8
:1004600021102A9421E0821A91088114910471F7D5
:10047000E8C0843611F0893641F5F80137FE07C02F
:1004800060817181828193810C5F1F4F08C0608100
:100490007181072E000C880B990B0E5F1F4FF32DF7
:1004A000FF763F2E97FF09C09095809570956195D6
:1004B0007F4F8F4F9F4FF0683F2E2AE030E0A3011F
:1004C0000E948703882E861845C0853731F4232D76
:1004D0002F7EB22E2AE030E025C0932D997FB92ED1
:1004E0008F36C1F018F4883579F0B5C0803719F02F
:1004F000883721F0B0C0E92FE061BE2EB4FE0DC0F8
:10050000FB2DF460BF2E09C034FE0AC0292F2660DF
:10051000B22E06C028E030E005C020E130E002C085
:1005200020E132E0F801B7FE07C06081718182816D
:1005300093810C5F1F4F06C06081718180E090E065
:100540000E5F1F4FA3010E948703882E8618FB2D84
:10055000FF773F2E36FE0DC0232D2E7FA22E89144D
:1005600058F434FE0BC032FC09C0832D8E7EA82EB9
:1005700005C0B82CA32C03C0B82C01C0B92CA4FE14
:100580000FC0FE01E80DF11D8081803321F49A2D0A
:10059000997EA92E09C0A2FE06C0B394B39404C0EC
:1005A0008A2D867809F0B394A3FC11C0A0FE06C082
:1005B000B21488F4280C922C9B180EC0B21460F46C
:1005C000B60180E290E00E944B03B394F7CFB214DF
:1005D00018F42B1802C0982C212CA4FE10C0B601D0
:1005E00080E390E00E944B03A2FE17C0A1FC03C071
:1005F00088E790E002C088E590E0B6010CC08A2D43
:10060000867859F0A1FE02C08BE201C080E2A7FC0F
:100610008DE2B60190E00E944B03891438F4B601D4
:1006200080E390E00E944B039A94F7CF8A94F30101
:10063000E80DF11D8081B60190E00E944B0381100E
:10064000F5CF222009F442CEB60180E290E00E946C
:100650004B032A94F6CFF6018681978102C08FEF73
:100660009FEF2B96E2E10C94FE03FC010590615094
:1006700070400110D8F7809590958E0F9F1F0895B8
:10068000FC016150704001900110D8F78095909561
:100690008E0F9F1F08950F931F93CF93DF93FB013E
:1006A000238121FD03C08FEF9FEF2CC022FF16C0D6
:1006B00046815781248135814217530744F4A08134
:1006C000B1819D012F5F3F4F208331838C93268121
:1006D00037812F5F3F4F2683378314C08B01EC0196
:1006E000FB010084F185E02D0995892BE1F6D80105
:1006F00016968D919C911797019616968D939C93C3
:100700001797CE01DF91CF911F910F910895FA01B4
:10071000AA27283051F1203181F1E8946F936E7F40
:100720006E5F7F4F8F4F9F4FAF4FB1E03ED0B4E031
:100730003CD0670F781F891F9A1FA11D680F791F72
:100740008A1F911DA11D6A0F711D811D911DA11D83
:1007500020D009F468943F912AE0269F1124301993
:10076000305D3193DEF6CF010895462F4770405D2E
:100770004193B3E00FD0C9F7F6CF462F4F70405DDD
:100780004A3318F0495D31FD4052419302D0A9F738
:10079000EACFB4E0A6959795879577956795BA9532
:1007A000C9F700976105710508959B01AC010A2EF8
:1007B00006945795479537952795BA95C9F7620FCF
:1007C000731F841F951FA01D08952F923F924F9273
:1007D0005F926F927F928F929F92AF92BF92CF92D1
:1007E000DF92EF92FF920F931F93CF93DF93CDB7DA
:1007F000DEB7CA1BDB0BCDBFDEBF09942A88398860
:1008000048885F846E847D848C849B84AA84B984A8
:10081000C884DF80EE80FD800C811B81AA81B981B4
:10082000CE0FD11DCDBFDEBFED010895F894FFCFEF
:030830002564003C
:00000001FF
