:100000000C9448000C945A000C945A000C945A001A
:100010000C945A000C945A000C945A000C945A00F8
:100020000C945A000C945A000C945A000C945A00E8
:100030000C945A000C945A000C945A000C945A00D8
:100040000C945A000C945A000C945A000C945A00C8
:100050000C945A000C945A000C945A000C945A00B8
:100060000C945A000C945A000C945A000C945A00A8
:100070000C945A000C945A000C945A000C945A0098
:100080000C945A000C945A000C945A000C945A0088
:1000900011241FBECFEFCDBFDFE3DEBF28E3A0E01A
:1000A000B8E301C01D92A430B207E1F70E94CC0171
:1000B0000C94F7050C940000E0E0F6E0108283E079
:1000C0008183A0EAB0E08C918F7880628C93119646
:1000D0008C9111978D7F11968C9380E4828381E0BF
:1000E000868B80818160808308959091080690FDC1
:1000F000FCCFE0E0F6E0868381E0808780910B060C
:1001000080FFFCCFE0E0F6E08089618970E0762F27
:100110006627680F711D072E000C880B990B089538
:100120008F929F92AF92BF92CF92DF92EF92FF9207
:100130000F931F93CF93DF93CDB7DEB76997CDBFF2
:10014000DEBF82EF9BE40E9443020E946602F82E0B
:100150000E946602082F0E946602182F0E94660203
:10016000F9820A831B838C831D82CE0101960E9433
:10017000D4026C01990FEE08FF08FF92EF92DF9214
:10018000CF928BE29CE49F938F938E010A5F1F4F67
:100190001F930F930E94FA02C8010E94430280E05D
:1001A0000E9475009B01AC01AAEFB0E00E94BA0268
:1001B0002FEF33E040E050E00E94720249015A0103
:1001C000BF92AF929F922F9389E39CE49F938F936A
:1001D0001F930F930E94FA02C8010E944302C8189D
:1001E000D908EA08FB08FF92EF92DF92CF9289E4E8
:1001F0009CE49F938F931F930F930E94FA02C80170
:100200000E944302CDBFDEBFC114D104E104F1045A
:1002100019F1A8EEB3E0A50194010E94BA0297017A
:100220008601FF2024F40F5F1F4F2F4F3F4F35955E
:10023000279517950795600F711F821F931FA701C0
:1002400096010E9494022093003830930138409325
:1002500002385093033808C01092003810920138C9
:100260001092023810920338609100387091013872
:1002700080E090E00E94AD05809103388F938091DB
:1002800002388F93809101388F93809100388F933B
:1002900085E59CE49F938F938E010A5F1F4F1F9308
:1002A0000F930E94FA02C8010E944302CDBFDEBF35
:1002B0006996CDBFDEBFDF91CF911F910F91FF9067
:1002C000EF90DF90CF90BF90AF909F908F90089568
:1002D0008F929F92AF92BF92CF92DF92EF92FF9256
:1002E000B82E0E9475006B017C01B1104AC0AAEFC4
:1002F000B0E09B01AC010E94BA022FEF33E040E076
:1003000050E00E94940249015A0169017A018091EA
:10031000003890910138A0910238B0910338BB2386
:10032000ACF4BC01CD01645F71408109910928EEF4
:1003300033E040E050E00E949402C501B4010E9405
:100340009402C20ED31EE41EF51E1BC01816190619
:100350001A061B06B4F4BC01CD016C507E4F8F4FC2
:100360009F4F28EE33E040E050E00E949402C50128
:10037000B4010E94940275016401C20ED31EE41EF2
:10038000F51EC701B601FF90EF90DF90CF90BF90B0
:10039000AF909F908F900895CF93DF93CDB7DEB746
:1003A0002A97CDBFDEBF0E945C000E94090280E058
:1003B0000E9468018E010F5F1F4F2AE0F801119221
:1003C0002A95E9F79F938F937F936F9383E49CE43F
:1003D0009F938F931F930F930E94FA02C8010E946C
:1003E000430280912408CDBFDEBF88231CF40E9405
:1003F0006F0201C080E0833611F40E94900034E562
:1004000083E298E0315080409040E1F700C000C0A6
:10041000CECF0F931F93A09122110A2E000CBB0B7D
:10042000BC5F27E534E00E94B3028B019C01992355
:1004300024F401501C4F2F4F3F4FD901C801072E04
:100440007AE0B595A795979587957A95D1F7702D10
:10045000E0E2F8E080879187A0E4B4E081E01196C3
:100460008C93119782E012968C9380EC868383E0C4
:1004700087831F910F9108959091240895FFFCCFD9
:10048000809322080895EF92FF920F931F93CF93CA
:10049000DF937C01FC0101900020E9F731978F0187
:1004A000081B190BC0E0D0E007C0F701EC0FFD1FDF
:1004B00080810E943C022196C017D107B0F3DF91E2
:1004C000CF911F910F91FF90EF90089501C0A895D3
:1004D000809124088823DCF780912008089580917A
:1004E00020080895A1E21A2EAA1BBB1BFD010DC016
:1004F000AA1FBB1FEE1FFF1FA217B307E407F507D4
:1005000020F0A21BB30BE40BF50B661F771F881FAF
:10051000991F1A9469F760957095809590959B0145
:10052000AC01BD01CF010895052E97FB1EF4009488
:100530000E94AB0257FD07D00E94720207FC03D055
:100540004EF40C94AB0250954095309521953F4F59
:100550004F4F5F4F089590958095709561957F4FAF
:100560008F4F9F4F08950E94C502B7FF0895821BC9
:10057000930B08950E94C502A59F900DB49F900D06
:10058000A49F800D911D11240895A29FB001B39FD7
:10059000C001A39F700D811D1124911DB29F700D8C
:1005A000811D1124911D0895FC0188279927E89445
:1005B00021912032E9F3293010F02E30C8F32B328C
:1005C00041F02D3239F4689404C00E94F202820F87
:1005D000911D219120532A30C0F31EF490958195EE
:1005E0009F4F08957AE0979F902D879F802D910DC2
:1005F00011240895AEE0B0E0E0E0F3E00C94D405FF
:100600000D891E8986E08C8309831A838FEF9FE70B
:100610008D839E83AE01475E5F4F6F89788DCE01DB
:1006200001960E941C03EF81F885E00FF11F1082F4
:100630002E96E4E00C94ED05ABE0B0E0E2E2F3E0EE
:100640000C94C6056C017B018A01FC01168217829D
:10065000838181FFCCC1CE0101963C01F6019381DB
:10066000F70193FD859193FF81917F01882309F420
:10067000BAC1853239F493FD859193FF81917F0151
:10068000853229F4B60190E00E941305E7CF912C42
:10069000212C312CFFE1F315D8F08B3279F038F4AE
:1006A000803279F08332A1F4232D20611DC08D3278
:1006B00061F0803369F4232D216016C0832D8260A0
:1006C000382EE32DE4603E2E2AC0F32DF8601DC0C5
:1006D00037FC2DC020ED280F2A3040F08E32B9F4BF
:1006E00036FC81C1232D2064322E19C036FE06C08F
:1006F0008AE0989E200D1124922E11C0EAE02E9ED1
:10070000200D1124222EF32DF0623F2E08C08C36CE
:1007100021F4832D8068382E02C0883641F4F70119
:1007200093FD859193FF81917F018111B3CF982F24
:100730009F7D9554933028F40C5F1F4F9FE399835E
:100740000DC0833631F0833771F0833509F059C01D
:1007500021C0F801808189830E5F1F4F8824839414
:10076000912C530113C02801F2E04F0E511CF801E7
:10077000A080B18036FE03C0692D70E002C06FEF2B
:100780007FEFC5010E9408054C018201F32DFF7720
:100790003F2E16C0280122E0420E511CF801A08015
:1007A000B18036FE03C0692D70E002C06FEF7FEFAD
:1007B000C5010E94FD044C01F32DF0683F2E82011B
:1007C00033FC1BC0822D90E088169906B0F4B60168
:1007D00080E290E00E9413052A94F4CFF50137FCE3
:1007E000859137FE81915F01B60190E00E9413056B
:1007F00021102A9421E0821A91088114910471F742
:10080000E8C0843611F0893641F5F80137FE07C09B
:1008100060817181828193810C5F1F4F08C060816C
:100820007181072E000C880B990B0E5F1F4FF32D63
:10083000FF763F2E97FF09C0909580957095619542
:100840007F4F8F4F9F4FF0683F2E2AE030E0A3018B
:100850000E944F05882E861845C0853731F4232D18
:100860002F7EB22E2AE030E025C0932D997FB92E3D
:100870008F36C1F018F4883579F0B5C0803719F09B
:10088000883721F0B0C0E92FE061BE2EB4FE0DC064
:10089000FB2DF460BF2E09C034FE0AC0292F26604C
:1008A000B22E06C028E030E005C020E130E002C0F2
:1008B00020E132E0F801B7FE07C0608171818281DA
:1008C00093810C5F1F4F06C06081718180E090E0D2
:1008D0000E5F1F4FA3010E944F05882E8618FB2D27
:1008E000FF773F2E36FE0DC0232D2E7FA22E8914BA
:1008F00058F434FE0BC032FC09C0832D8E7EA82E26
:1009000005C0B82CA32C03C0B82C01C0B92CA4FE80
:100910000FC0FE01E80DF11D8081803321F49A2D76
:10092000997EA92E09C0A2FE06C0B394B39404C058
:100930008A2D867809F0B394A3FC11C0A0FE06C0EE
:10094000B21488F4280C922C9B180EC0B21460F4D8
:10095000B60180E290E00E941305B394F7CFB21481
:1009600018F42B1802C0982C212CA4FE10C0B6013C
:1009700080E390E00E941305A2FE17C0A1FC03C013
:1009800088E790E002C088E590E0B6010CC08A2DAF
:10099000867859F0A1FE02C08BE201C080E2A7FC7C
:1009A0008DE2B60190E00E941305891438F4B60177
:1009B00080E390E00E9413059A94F7CF8A94F301A4
:1009C000E80DF11D8081B60190E00E9413058110B1
:1009D000F5CF222009F442CEB60180E290E00E94D9
:1009E00013052A94F6CFF6018681978102C08FEF16
:1009F0009FEF2B96E2E10C94DF05FC01059061501E
:100A000070400110D8F7809590958E0F9F1F089524
:100A1000FC016150704001900110D8F780959095CD
:100A20008E0F9F1F08950F931F93CF93DF93FB01AA
:100A3000238121FD03C08FEF9FEF2CC022FF16C042
:100A400046815781248135814217530744F4A081A0
:100A5000B1819D012F5F3F4F208331838C9326818D
:100A600037812F5F3F4F2683378314C08B01EC0102
:100A7000FB010084F185E02D0995892BE1F6D80171
:100A800016968D919C911797019616968D939C932F
:100A90001797CE01DF91CF911F910F910895FA0121
:100AA000AA27283051F1203181F1E8946F936E7FAD
:100AB0006E5F7F4F8F4F9F4FAF4FB1E03ED0B4E09E
:100AC0003CD0670F781F891F9A1FA11D680F791FDF
:100AD0008A1F911DA11D6A0F711D811D911DA11DF0
:100AE00020D009F468943F912AE0269F1124301900
:100AF000305D3193DEF6CF010895462F4770405D9B
:100B00004193B3E00FD0C9F7F6CF462F4F70405D49
:100B10004A3318F0495D31FD4052419302D0A9F7A4
:100B2000EACFB4E0A6959795879577956795BA959E
:100B3000C9F700976105710508959B01AC010A2E64
:100B400006945795479537952795BA95C9F7620F3B
:100B5000731F841F951FA01D08950E94B205272FA3
:100B60000C94B305262FAF93BF93E0E0F0E1328100
:100B700031FDFDCFDC01A050BC4E2C932DE924BFEC
:100B800023E020830196BF91AF9108952F923F9269
:100B90004F925F926F927F928F929F92AF92BF928D
:100BA000CF92DF92EF92FF920F931F93CF93DF9339
:100BB000CDB7DEB7CA1BDB0BCDBFDEBF09942A88D9
:100BC000398848885F846E847D848C849B84AA8461
:100BD000B984C884DF80EE80FD800C811B81AA81EE
:100BE000B981CE0FD11DCDBFDEBFED010895F894C0
:020BF000FFCF35
:100BF200456E746572206D756C74696D657465728D
:100C02002D6D6561737572656420766F6C746167B2
:100C120065202831325620776F756C64206265201A
:100C220031323030293A0A0D0041637475616C3AF1
:100C320020256C640A0D004D656173757265643A16
:100C420020256C640A0D0054656D703A20256C6491
:0F0C52000A0D004761696E3A20256C640A0D0097
:00000001FF
