:100000000C9448000C9452000C9452000C94520032
:100010000C9452000C9452000C9452000C94520018
:100020000C9452000C9452000C9452000C94520008
:100030000C9452000C9452000C9452000C945200F8
:100040000C9452000C9452000C9452000C945200E8
:100050000C9452000C9452000C9452000C945200D8
:100060000C9452000C9452000C9452000C945200C8
:100070000C9452000C9452000C9452000C945200B8
:100080000C9452000C9452000C9452000C945200A8
:1000900011241FBECFEFCDBFDFE3DEBF0E945400AF
:1000A0000C947F000C940000E0EAF4E081E081838E
:1000B00082E08183E0EAF4E092E0968381E0858348
:1000C0002AEA31E144E0215030404040E1F70000AD
:1000D000A895868395839AEA21E134E091502040E7
:1000E0003040E1F70000A89585834AEA81E194E079
:1000F000415080409040E1F70000A895DBCFF89494
:02010000FFCF2F
:00000001FF
