S01A000045766572797468696E67546F6765746865722E73726563A3
S11300000C945E000C947B000C947B000C947B009D
S11300100C947B000C947B000C947B000C947B0070
S11300200C947B000C947B000C947B000C947B0060
S11300300C94BD000C947B000C947B000C947B000E
S11300400C947B000C947B000C947B000C947B0040
S11300500C947B000C947B000C947B000C947B0030
S11300600C947B000C947B000C947B000C947B0020
S11300700C947B000C947B000C947B000C947B0010
S11300800C947B000C947B000C947B000C947B0000
S1130090520764076D0772077207720772077207C7
S11300A067077207720761077207720772075507BD
S11300B0720770075E0758075B076A0711241FBEA3
S11300C0CFEFCDBFDFE3DEBF18E3A0E0B8E3E5EB9D
S11300D0F0E202C005900D92A230B107D9F728E3EF
S11300E0A2E0B8E301C01D92A133B207E1F70E9478
S11300F0F5060C94950C0C940000E0E0F6E085E025
S1130100808380E181830895813041F018F082304A
S113011049F0089581E08093060608958EE0809367
S11301200606089584E08093060608950E948400DC
S113013081E08093080680910B068823E1F3809187
S1130140100690911106813F910510F081E0089509
S113015080E00895E0EAF4E091E0918382E0818315
S113016096838683089521E030E002C0220F331F76
S11301708A95E2F72093A60408951F920F920FB672
S11301800F9211242F933F934F935F936F937F9319
S11301908F939F93AF93BF93EF93FF9381E08093EB
S11301A0860A80912A38882319F110921138109206
S11301B012381092263810922738809128388F5F91
S11301C08093283880912838843608F491C010929E
S11301D02838809129388F5F809329388091293875
S11301E090E00E941F0985E69FE50E944E0980C0A9
S11301F080911038882391F0109228381092293871
S11302001092263810922738809111389091123824
S1130210019680931138909312386AC080912238E5
S1130220882309F465C01092283810922938109256
S1130230113810921238809125388823D9F0809192
S11302402638909127380196809326389093273842
S113025080912638909127388436910508F448C057
S113026010922638109227381092253880E00E9488
S1130270CB083EC0809124388823D1F08091263861
S1130280909127380196809326389093273880914F
S1130290263890912738843F914050F110922638A7
S11302A0109227381092243880E00E94D10820C090
S11302B0809123388823E1F0809126389091273863
S11302C00196809326389093273880912638909110
S11302D02738883E934060F01092263810922738D1
S11302E01092233880E00E94CB0880E00E94D1085D
S11302F0FF91EF91BF91AF919F918F917F916F91FA
S11303005F914F913F912F910F900FBE0F901F90CF
S11303101895CF938EE299E50E944E0985E699E5FA
S11303200E944E09C0E047C0A89528E038E34AE09F
S113033058E36CE078E38EE098E30E9415088FEAB6
S113034099E50E944E0980910E3890910F380E94D1
S11303501F0983EB99E50E944E0980910C38909116
S11303600D380E941F0988EB99E50E944E0980917F
S11303700A3890910B380E941F098DEB99E50E9471
S11303804E0980910838909109380E941F0985E62A
S11303909FE50E944E092FEF80E792E021508040B4
S11303A09040E1F700C000008091240888231CF4E9
S11303B00E947A09C82F8C2F90E00E94A1098137EE
S11303C0910509F0B1CFCF910895CF93DF9380E0E9
S11303D00E949600C82F81E00E949600D82F82E0E8
S11303E00E949600CC2341F0D11106C0811104C0B3
S11303F081E080932D381AC0C11108C0DD2331F08B
S1130400811104C081E080932C3810C0C11108C050
S1130410D11106C0882321F081E080932B3806C0D7
S113042010922D3810922C3810922B38DF91CF91E6
S1130430089580910738813071F018F0823099F076
S1130440089510922E3880912D38882389F081E008
S113045080930738089580912D38811109C082E076
S113046080930738089581E080932E3810920738DE
S1130470089580910638813071F018F0823099F037
S1130480089510922F3880912C38882389F081E0C8
S113049080930638089580912C38811109C082E038
S11304A080930638089581E080932F38109206389F
S11304B0089580910538813071F018F0823099F0F8
S11304C008951092303880912B38882389F081E088
S11304D080930538089580912B38811109C082E0FA
S11304E080930538089581E0809330381092053860
S11304F008950E9419020E9439020E945902089527
S113050080913038882359F0809101388F5F80932F
S11305100138843010F010920138109230388091F4
S11305202F38882339F0809100388A3F18F4865F89
S11305308093003880912E38882339F080910038D8
S1130540882319F08A5080930038809101388130D3
S113055071F028F0823099F08330D1F008958091C1
S113056000380E94CB0880E00E94D108089580E002
S11305700E94CB08809100380E94D1080895809190
S113058000380E94CB08809100380E94D108089559
S113059080E00E94CB0880E00E94D1080895CF93A8
S11305A082EC99E50E944E098AEE99E50E944E0973
S11305B0C0E00EC0A8950E94E5010E9479020E9445
S11305C080028091240888231CF40E947A09C82F91
S11305D08C2F90E00E94A1098137910559F780E0A2
S11305E00E94CB0880E00E94D108CF910895CF9358
S11305F08BE69AE50E944E0985E99AE50E944E0928
S11306000E94BF0881E080932A38C0E008C0A89502
S11306108091240888231CF40E947A09C82F8C2F07
S113062090E00E94A1098137910589F70E94C508CD
S1130630109229381092283810922A38CF910895B0
S1130640CF938FEB9AE50E944E0980EF9AE50E94C2
S11306504E090E94BF0881E080932238C0E046C062
S1130660A89580E00E949600882379F08091243830
S113067081110BC080912338811107C08FEF0E9434
S1130680CB0881E0809325382AC081E00E9496003F
S1130690882379F08091253881110BC0809123380B
S11306A0811107C08FEF0E94D10881E08093243824
S11306B016C082E00E949600882389F08091253834
S11306C081110DC080912438811109C08FEF0E94DF
S11306D0CB088FEF0E94D10881E08093233880916A
S11306E0240888231CF40E947A09C82F8C2F90E0D8
S11306F00E94A1098137910509F0B2CF0E94C50873
S113070010922638109227381092223880E00E94E6
S1130710CB0880E00E94D108CF910895CF9380E860
S11307209BE50E944E0989EB9BE50E944E09C0E0BF
S113073005C00E947109C82F0E9418098C2F90E0EF
S11307400E94A10981379105A1F785E69FE50E94E2
S11307504E09CF910895A8950E94710990E00E94D6
S1130760A9099C01873421F0823511F0893599F764
S113077033272235310539F029353105A1F02734E5
S11307803105C9F408C081E08093183810921738F5
S113079010921638089581E0809317381092183813
S11307A010921638089581E0809316381092173805
S11307B01092183808951092183810921738109221
S11307C016380895CF93DF9380E00E949600C82FD7
S11307D081E00E949600D82F82E00E949600CC23EC
S11307E041F0D11106C0811104C081E08093213809
S11307F036C0C11108C0DD2331F0811104C081E08D
S1130800809320382CC0C11108C0D11106C08823A0
S113081021F081E080931F3822C0CC23D1F0DD2366
S1130820C1F08823B1F081E0809319381092213807
S11308301092203810921F3880E00E94B30081E0AB
S11308400E94B30086EE9BE50E944E090E94AB0312
S113085006C0109221381092203810921F38DF9170
S1130860CF9108950E94E203089580910438813065
S113087081F018F08230C1F0089510921C38109263
S11308801E38809121388823A1F081E080930438B8
S1130890089581E080931E3880912138811109C028
S11308A082E080930438089581E080931C3810928C
S11308B00438089580910338813081F018F0823033
S11308C0C1F0089510921B3810921D388091203881
S11308D08823A1F081E080930338089581E0809318
S11308E01D3880912038811109C082E0809303383B
S11308F0089581E080931B38109203380895809105
S11309000238813071F018F08230C1F008951092ED
S11309101A3880911F388823B1F081E0809302381F
S1130920089581E080931E3880931D3880911F388C
S1130930811109C082E080930238089581E0809398
S11309401A3810920238089580911838882321F0BB
S113095081E0809315380895109215380895809198
S11309601738882321F081E0809314380895109279
S11309701438089580911638882321F081E08093FB
S113098013380895109213380895809119388823E4
S113099039F00E94A4040E94AF040E94BA0408958E
S11309A00E9435040E945A040E947F040895809195
S11309B01938882309F4A2C080911538882379F165
S11309C08FEF0E94CB080E94BF088AE19CE50E9439
S11309D04E090E9471090E94C50880E00E94CB085C
S11309E082E49CE50E944E0920911138309112381E
S11309F0C901880F991F220F331F220F331F220FA3
S1130A00331F820F931F0E941F098CE59CE50E94EF
S1130A104E091092113810921238109215388091A4
S1130A201438882379F18FEF0E94D1080E94BF08FF
S1130A308CE69CE50E944E090E9471090E94C5083B
S1130A4080E00E94D10886E99CE50E944E0920912D
S1130A50113830911238C901880F991F220F331FA2
S1130A60220F331F220F331F820F931F0E941F096F
S1130A708CE59CE50E944E091092113810921238B0
S1130A8010921438809113388823A9F18FEF0E94B3
S1130A90D1088FEF0E94CB080E94BF0882EB9CE52F
S1130AA00E944E090E9471090E94C50880E00E94BC
S1130AB0D10880E00E94CB088DED9CE50E944E0990
S1130AC02091113830911238C901880F991F220FD3
S1130AD0331F220F331F220F331F820F931F0E94D5
S1130AE01F098CE59CE50E944E0910921138109262
S1130AF012381092133810921938089580911E38C4
S1130B00882321F08FEF0E94CB0803C080E00E946D
S1130B10CB0880911D38882321F08FEF0E94D108E3
S1130B2003C080E00E94D10880911C38882321F002
S1130B308AEF9CE50E944E0980911B38882321F09E
S1130B4085E19DE50E944E0980911A38882321F0A1
S1130B5080E39DE50E944E090895CF938AE49DE5C4
S1130B600E944E0980E89DE50E944E0981E0809331
S1130B701038C0E00EC0A8950E9432040E94C5043B
S1130B800E94D7048091240888231CF40E947A09C7
S1130B90C82F8C2F90E00E94A1098137910559F745
S1130BA080E00E94CB0880E00E94D10810921038A7
S1130BB0CF910895CF9381EF9DE50E944E0982E283
S1130BC09EE50E944E09C0E031C080E00E94D10839
S1130BD08FEF0E94CB082AEA80EA91E021508040FE
S1130BE09040E1F700C0A8958FEF0E94D10880E003
S1130BF00E94CB082AEA80EA91E02150804090408C
S1130C00E1F700C0A8958FEF0E94CB082AEA80EA9A
S1130C1091E0215080409040E1F700C0A895809178
S1130C20240888231CF40E947A09C82F8C2F90E092
S1130C300E94A1098137910541F680E00E94CB080A
S1130C4080E00E94D108CF910895CF9383E49EE57C
S1130C500E944E098FE69EE50E944E09C0E048C0FE
S1130C60A89528E038E34AE058E36CE078E38EE0A6
S1130C7098E30E94150880910E3890910F38805E99
S1130C809C4F8134964038F08FEF0E94CB0880E06F
S1130C900E94D10826C080910C3890910D38805E56
S1130CA09C4F8134964038F080E00E94CB088FEF4F
S1130CB00E94D10816C080910A3890910B38805E4A
S1130CC09C4F8134964038F08FEF0E94CB088FEF11
S1130CD00E94D10806C080E00E94CB0880E00E94F8
S1130CE0D1088091240888231CF40E947A09C82F13
S1130CF08C2F90E00E94A1098137910509F0B0CFB3
S1130D0080E00E94CB0880E00E94D108CF91089532
S1130D10CF938FED9EE50E944E098BE09FE50E94E4
S1130D204E09C0E044C0A89528E038E34AE058E3FF
S1130D306CE078E38EE098E30E94150880910C380B
S1130D4090910D3899231CF49195819591099C01FA
S1130D5080930C3890930D3880910E3890910F3811
S1130D6099231CF491958195910980930E38909361
S1130D700F38C90199230CF4039695958795959599
S1130D8087950E94CB0880910E3890910F38992353
S1130D900CF4039695958795959587950E94D108AF
S1130DA08091240888231CF40E947A09C82F8C2F70
S1130DB090E00E94A1098137910509F0B4CF80E049
S1130DC00E94CB0880E00E94D108CF91089588E664
S1130DD09FE50E944E098DE69FE50E944E09089505
S1130DE081E79FE50E944E09FFCF0E94E5080E941B
S1130DF0D6070E947D000E94AA0088E298E60E941D
S1130E00B4080E94D7080E94080878940E94E70654
S1130E10A8952AEA81E194E0215080409040E1F7CE
S1130E200000A89580E89FE50E944E098CEC9FE5A0
S1130E300E944E0985EE9FE50E944E098FEE9FE5C4
S1130E400E944E098BEF9FE50E944E098EE090E6CA
S1130E500E944E0989E290E60E944E0981E490E6E0
S1130E600E944E0984E590E60E944E0982E690E6CF
S1130E700E944E0980E790E60E944E0983E890E6BE
S1130E800E944E090E94710990E00E94A109FC0190
S1130E90FF27E156F109E631F10520F5E85BFF4F44
S1130EA00C947D090E94890121C00E94CF021EC0BA
S1130EB00E94F7021BC00E94200318C00E948E03E8
S1130EC015C00E94AD0512C00E94DA050FC00E9431
S1130ED025060CC00E94880609C00E94E70606C0C9
S1130EE00E94F0068FE890E60E944E0985E69FE591
S1130EF00E944E0996CFCF92DF92EF92FF920F930A
S1130F001F938B019C0199230CF443C080E090E073
S1130F10A0E0B0E408C0B595A79597958795B595D9
S1130F20A79597958795081719072A073B079CF3F8
S1130F3040E050E0BA0124C06A017B01C80ED91E0A
S1130F40EA1EFB1E0C151D052E053F056CF00C1941
S1130F501D092E093F097595679557954795480FC3
S1130F60591F6A1F7B1F04C0759567955795479550
S1130F70B595A79597958795B595A79597958795D1
S1130F800097A105B105C1F6342F252F862F972F81
S1130F9004C03FEF2FEF8FEF9FEF632F722F1F914E
S1130FA00F91FF90EF90DF90CF900895E0E0F4E090
S1130FB080E5818380E2828380E8818387E2809375
S1130FC0C00808958093C4088091C3088823E4F777
S1130FD08091C408089580E880930604089580E809
S1130FE0809305040895CF93DF93D82FC62F0E94D2
S1130FF0EB078D2F8F770E94E20780E00E94E207C3
S11310008C2F0E94E2070E94EF07DF91CF91089591
S113101060E085E10E94F30760E189E10E94F30743
S113102067E085E10E94F30708956F927F928F92A3
S11310309F92AF92BF92CF92DF92EF92FF920F9363
S11310401F93CF93DF938C01EB016A0179010E9416
S1131050EB0784E80E94E20780E00E94E20780E058
S11310600E94E207682E80E00E94E207782E80E06A
S11310700E94E207882E80E00E94E207982E80E01A
S11310800E94E207A82E80E00E94E207B82E0E9488
S1131090EF07872D90E0982F882786299C012295B9
S11310A03295307F3227207F322793FF02C02F5F93
S11310B03F4F35952795F80120833183892D90E0A2
S11310C0982F882788299C0122953295307F3227D2
S11310D0207F322793FF02C02F5F3F4F359527951E
S11310E0288339838B2D90E0982F88278A29AC0197
S11310F042955295507F5427407F542793FF02C056
S11311004F5F5F4F55954795F60140835183F80132
S1131110A081B1819D010E9483094B015C01A881DA
S1131120B9819D010E948309860E971EA81EB91ECF
S11311309A01DA010E948309680D791D8A1D9B1D9D
S11311400E947B07F70160837183DF91CF911F9128
S11311500F91FF90EF90DF90CF90BF90AF909F9052
S11311608F907F906F9008959C01E0E8FAE0908161
S11311709E7F90832487358781E085830895E0E806
S1131180FAE08081816080830895E0E8FAE080815C
S11311908E7F8083089590E08093280A9093290A93
S11311A0089590E080932A0A90932B0A0895E0E032
S11311B0FAE08FEF90E086A397A383E3818385E031
S11311C08093E40581E0808308950F931F93A09199
S11311D022110A2E000CBB0BBC5F27E534E00E94F1
S11311E09A098B019C01992324F401501C4F2F4F21
S11311F03F4FD901C801072E7AE0B595A795979579
S113120087957A95D1F7702DE0E2F8E08087918791
S1131210A0E4B4E081E011968C93119782E01296D9
S11312208C9380EC868383E087831F910F910895CC
S11312309091240895FFFCCF8093220808951F9372
S1131240CF93DF93CDB7DEB72A97CDBFDEBF9F9391
S11312508F9382EB90E69F938F93CE0101969F9399
S11312608F930E94B1090F900F900F900F900F90E1
S11312700F9010E003C00E9418091F5FE1E0F0E046
S1131280EC0FFD1FE10FF11D80818111F4CF2A962F
S1131290CDBFDEBFDF91CF911F910895EF92FF92F2
S11312A00F931F93CF93DF937C01FC0101900020E7
S11312B0E9F731978F01081B190BC0E0D0E007C094
S11312C0F701EC0FFD1F80810E9418092196C017B9
S11312D0D107B0F3DF91CF911F910F91FF90EF9061
S11312E0089501C0A895809124088823DCF7809193
S11312F020080895809120080895EE0FFF1F05909F
S1131300F491E02D09940E948B09332312F48A1B73
S11313109B0B0C949C09A29FB001B39FC001A39F97
S1131320700D811D1124911DB29F700D811D11241A
S1131330911D08950E948B09B7FF0895821B930B9A
S113134008959111089581548A5108F4805E855A54
S113135008959111089581568A5108F48052855850
S11313600895AEE0B0E0E7EBF9E00C94720C0D895F
S11313701E8986E08C8309831A838FEF9FE78D8310
S11313809E83AE01475E5F4F6F89788DCE010196D3
S11313900E94D309EF81F885E00FF11F10822E9689
S11313A0E4E00C948B0CABE0B0E0E9EDF9E00C94D4
S11313B0640C6C017B018A01FC0116821782838113
S11313C081FFCCC1CE0101963C01F6019381F70166
S11313D093FD859193FF81917F01882309F4BAC11C
S11313E0853239F493FD859193FF81917F01853294
S11313F029F4B60190E00E94CA0BE7CF912C212C6E
S1131400312CFFE1F315D8F08B3279F038F48032C7
S113141079F08332A1F4232D20611DC08D3261F057
S1131420803369F4232D216016C0832D8260382E09
S1131430E32DE4603E2E2AC0F32DF8601DC037FC76
S11314402DC020ED280F2A3040F08E32B9F436FC3E
S113145081C1232D2064322E19C036FE06C08AE0D5
S1131460989E200D1124922E11C0EAE02E9E200D8C
S11314701124222EF32DF0623F2E08C08C3621F465
S1131480832D8068382E02C0883641F4F70193FD1D
S1131490859193FF81917F018111B3CF982F9F7D17
S11314A09554933028F40C5F1F4F9FE399830DC02C
S11314B0833631F0833771F0833509F059C021C088
S11314C0F801808189830E5F1F4F88248394912CB7
S11314D0530113C02801F2E04F0E511CF801A08003
S11314E0B18036FE03C0692D70E002C06FEF7FEF5C
S11314F0C5010E94BF0B4C018201F32DFF773F2EE3
S113150016C0280122E0420E511CF801A080B180CF
S113151036FE03C0692D70E002C06FEF7FEFC50196
S11315200E94B40B4C01F32DF0683F2E820133FC72
S11315301BC0822D90E088169906B0F4B60180E2B3
S113154090E00E94CA0B2A94F4CFF50137FC8591F0
S113155037FE81915F01B60190E00E94CA0B211011
S11315602A9421E0821A91088114910471F7E8C049
S1131570843611F0893641F5F80137FE07C06081E1
S11315807181828193810C5F1F4F08C060817181DA
S1131590072E000C880B990B0E5F1F4FF32DFF765F
S11315A03F2E97FF09C090958095709561957F4F68
S11315B08F4F9F4FF0683F2E2AE030E0A3010E9436
S11315C0060C882E861845C0853731F4232D2F7ECE
S11315D0B22E2AE030E025C0932D997FB92E8F36A4
S11315E0C1F018F4883579F0B5C0803719F0883720
S11315F021F0B0C0E92FE061BE2EB4FE0DC0FB2D7A
S1131600F460BF2E09C034FE0AC0292F2660B22E12
S113161006C028E030E005C020E130E002C020E14F
S113162032E0F801B7FE07C0608171818281938145
S11316300C5F1F4F06C06081718180E090E00E5FF7
S11316401F4FA3010E94060C882E8618FB2DFF77DE
S11316503F2E36FE0DC0232D2E7FA22E891458F462
S113166034FE0BC032FC09C0832D8E7EA82E05C02B
S1131670B82CA32C03C0B82C01C0B92CA4FE0FC0F5
S1131680FE01E80DF11D8081803321F49A2D997EAD
S1131690A92E09C0A2FE06C0B394B39404C08A2D37
S11316A0867809F0B394A3FC11C0A0FE06C0B2145E
S11316B088F4280C922C9B180EC0B21460F4B60166
S11316C080E290E00E94CA0BB394F7CFB21418F4EE
S11316D02B1802C0982C212CA4FE10C0B60180E364
S11316E090E00E94CA0BA2FE17C0A1FC03C088E7C9
S11316F090E002C088E590E0B6010CC08A2D86789F
S113170059F0A1FE02C08BE201C080E2A7FC8DE289
S1131710B60190E00E94CA0B891438F4B60180E344
S113172090E00E94CA0B9A94F7CF8A94F301E80DD3
S1131730F11D8081B60190E00E94CA0B8110F5CFA3
S1131740222009F442CEB60180E290E00E94CA0B46
S11317502A94F6CFF6018681978102C08FEF9FEF1E
S11317602B96E2E10C947D0CFC01059061507040D5
S11317700110D8F7809590958E0F9F1F0895FC0156
S11317806150704001900110D8F7809590958E0FAC
S11317909F1F08950F931F93CF93DF93FB01238122
S11317A021FD03C08FEF9FEF2CC022FF16C046819E
S11317B05781248135814217530744F4A081B181B4
S11317C09D012F5F3F4F208331838C932681378186
S11317D02F5F3F4F2683378314C08B01EC01FB013D
S11317E00084F185E02D0995892BE1F6D801169640
S11317F08D919C911797019616968D939C931797AC
S1131800CE01DF91CF911F910F910895FA01AA277C
S1131810283051F1203181F1E8946F936E7F6E5F2F
S11318207F4F8F4F9F4FAF4FB1E03ED0B4E03CD0DD
S1131830670F781F891F9A1FA11D680F791F8A1FC0
S1131840911DA11D6A0F711D811D911DA11D20D027
S113185009F468943F912AE0269F11243019305DE1
S11318603193DEF6CF010895462F4770405D4193D2
S1131870B3E00FD0C9F7F6CF462F4F70405D4A331F
S113188018F0495D31FD4052419302D0A9F7EACFE7
S1131890B4E0A6959795879577956795BA95C9F716
S11318A000976105710508959B01AC010A2E069409
S11318B05795479537952795BA95C9F7620F731FC2
S11318C0841F951FA01D08952F923F924F925F92FF
S11318D06F927F928F929F92AF92BF92CF92DF923C
S11318E0EF92FF920F931F93CF93DF93CDB7DEB7A1
S11318F0CA1BDB0BCDBFDEBF09942A883988488810
S11319005F846E847D848C849B84AA84B984C88417
S1131910DF80EE80FD800C811B81AA81B981CE0F0E
S1111920D11DCDBFDEBFED010895F894FFCFB9
S113192E596F752061726520696E2052656164205D
S113193E616363656C65726F6D65746572206D6F3E
S113194E646520287072657373207120746F20652E
S113195E786974290A0D00546869732074656C6C77
S113196E7320796F752074686520782C20792C206B
S113197E616E64207A20616363656C65726174695B
S113198E6F6E7320616E642074686520746F746169
S113199E6C20616363656C65726174696F6E0A0DA8
S11319AE00583A200020593A2000205A3A200020AC
S11319BE413A2000596F752061726520696E20507E
S11319CE574D206D6F646520287072657373207196
S11319DE20746F2065786974290A0D00596F75207B
S11319EE63616E206368616E676520746865206349
S11319FE6F6C6F7220776974682074686520484F25
S1131A0E524E20627574746F6E20616E64206D6127
S1131A1E6B6520746865206C696768742064696DF1
S1131A2E6D65722077697468207468652049474E25
S1131A3E3120627574746F6E20616E6420627269F7
S1131A4E67687465722077697468207468652049C4
S1131A5E474E3220627574746F6E0A0D00596F759D
S1131A6E2061726520696E2054696D6572206D6FF8
S1131A7E646520287072657373207120746F2065FD
S1131A8E786974290A0D00546869732074656C6C46
S1131A9E7320686F77206D616E79207365636F6E46
S1131AAE64732068617665207061737365640A0DD2
S1131ABE00596F752061726520696E2054696D65D9
S1131ACE7220627574746F6E206D6F646520287059
S1131ADE72657373207120746F2065786974290A96
S1131AEE0D005072657373696E672049474E31203D
S1131AFE7475726E732074686520726564206C69E7
S1131B0E676874206F6E20666F7220312073656370
S1131B1E6F6E642E2049474E32207475726E732098
S1131B2E74686520677265656E206C6967687420D9
S1131B3E6F6E20666F722035207365636F6E6473EB
S1131B4E2E20484F524E207475726E732074686541
S1131B5E2079656C6C6F77206C69676874206F6E82
S1131B6E20666F72203130207365636F6E64730A62
S1131B7E0D00596F752061726520696E2053657270
S1131B8E69616C20636F6D6D756E69636174696FE5
S1131B9E6E206D6F646520287072657373207120DA
S1131BAE746F2065786974290A0D00416E79746822
S1131BBE696E6720796F7520747970652077696C0A
S1131BCE6C2062652073656E74206261636B207491
S1131BDE6F20796F750A0D00476976652074686504
S1131BEE206C6574746572206F6620746865206C51
S1131BFE6967687420796F752077616E7420746FCD
S1131C0E207475726E206F6E3A0D0A0050726573F1
S1131C1E7320616E79206B657920746F20747572F0
S1131C2E6E2074686520726564204C4544206F668E
S1131C3E660A0D00526564204C454420776173207A
S1131C4E6F6E20666F722061626F75742000206D56
S1131C5E696C6C697365636F6E64730A0D00507200
S1131C6E65737320616E79206B657920746F2074AF
S1131C7E75726E2074686520677265656E204C45BA
S1131C8E44206F66660A0D00477265656E204C45EA
S1131C9E4420776173206F6E20666F722061626FCD
S1131CAE75742000507265737320616E79206B65B4
S1131CBE7920746F207475726E207468652079654E
S1131CCE6C6C6F77204C4544206F66660A0D005984
S1131CDE656C6C6F77204C454420776173206F6E72
S1131CEE20666F722061626F7574200049474E5FE3
S1131CFE3120627574746F6E207761732070726513
S1131D0E737365640D0A0049474E5F322062757421
S1131D1E746F6E2077617320707265737365640DD2
S1131D2E0A00484F524E20627574746F6E207761AC
S1131D3E7320707265737365640D0A00596F752094
S1131D4E61726520696E2053657269616C206275DB
S1131D5E74746F6E204C4544206D6F64652028703A
S1131D6E72657373207120746F2065786974290A03
S1131D7E0D00596F752061726520616C6572746512
S1131D8E64207768656E206120627574746F6E20AE
S1131D9E6973207072657373656420616E64206963
S1131DAE6620796F7520707265737320616C6C2078
S1131DBE746872656520627574746F6E73206174D5
S1131DCE206F6E63652C20736F6D657468696E6722
S1131DDE207370656369616C2068617070656E73E1
S1131DEE0A0D00596F752061726520696E20426C70
S1131DFE696E6B696E67204C4544206D6F64652077
S1131E0E287072657373207120746F2065786974FD
S1131E1E290A0D00546865204C4544206368616EA0
S1131E2E67657320636F6C6F72732072617069647F
S1131E3E6C790A0D00596F752061726520696E20E8
S1131E4E4C454420535049206D6F646520287072B0
S1131E5E657373207120746F2065786974290A0D77
S1131E6E00546865204C4544206368616E67657351
S1131E7E20636F6C6F72206261736564206F6E20D5
S1131E8E7468652074696C742028677265656E20A9
S1131E9E696E207820646972656374696F6E2C2094
S1131EAE72656420696E2079206469726563746951
S1131EBE6F6E2C20616E642079656C6C6F7720696F
S1131ECE6E207A20646972656374696F6E290A0DD7
S1131EDE00596F752061726520696E2050574D2030
S1131EEE535049206D6F646520287072657373209A
S1131EFE7120746F2065786974290A0D0054686521
S1131F0E204C4544206368616E6765732062726974
S1131F1E6768746E657373206261736564206F6E97
S1131F2E207468652074696C742028677265656E08
S1131F3E20696E207820646972656374696F6E20FF
S1131F4E616E642072656420696E20792064697202
S1131F5E656374696F6E290A0D001B5B324A001BA0
S1131F6E5B4800526573657474696E672E2E2E0A73
S1131F7E0D00506C6561736520747970652074680A
S1131F8E65206C657474657220636F72726573700C
S1131F9E6F6E64696E6720746F2077686174206D4C
S1131FAE6F646520796F7520776F756C64206C692A
S1131FBE6B6520746F20656E7465720A0D0009617D
S1131FCE3A205265616420616363656C65726F6D5E
S1131FDE657465720A0D0009703A2050574D0A0D4A
S1131FEE0009743A2054696D65720A0D0009753A38
S1131FFE2054696D657220627574746F6E0A0D00DB
S113200E09733A2053657269616C20636F6D6D7547
S113201E6E69636174696F6E0A0D00096C3A205320
S113202E657269616C20627574746F6E204C4544E0
S113203E0A0D0009623A20426C696E6B696E672064
S113204E4C45440A0D0009693A204C45442053502E
S113205E490A0D0009763A2050574D205350490A2B
S113206E0D0009633A20436C6561722073637265D7
S113207E656E0A0D0009723A2052657365740A0D75
S113208E00496E76616C696420696E7075742E20D9
S113209E506C656173652074727920616761696E35
S10A20AE2E0A0D0025640059
S10520B5C8035A
S9030000FC
