S01A000045766572797468696E67546F6765746865722E73726563A3
S11300000C9461000C947E000C947E000C947E0091
S11300100C947E000C947E000C947E000C947E0064
S11300200C947E000C947E000C947E000C947E0054
S11300300C94F4000C947E000C947E000C947E00CE
S11300400C947E000C947E000C947E000C947E0034
S11300500C947E000C947E000C947E000C947E0024
S11300600C947E000C947E000C947E000C947E0014
S11300700C947E000C947E000C947E000C947E0004
S11300800C947E000C947E000C947E000C947E00F4
S113009038094A0956095B095B095B095B095B0975
S11300A04D095B095B0947095B095B095B093B096E
S11300B05B09590944093E09410950095B095B0977
S11300C0530911241FBECFEFCDBFDFE3DEBF18E31A
S11300D0A0E0B8E3E0ECF6E202C005900D92A23095
S11300E0B107D9F728E3A2E0B8E301C01D92A53314
S11300F0B207E1F70E94C7080C94160F0C94000095
S1130100E0E0F6E085E0808380E18183089581303A
S113011041F018F0823049F0089581E0809306069A
S113012008958EE080930606089584E08093060681
S11301300895E0E0F6E0108283E08183A0EAB0E075
S11301408C918F7880628C9311968C9111978D7F0E
S113015011968C9380E4828381E0868B8081816018
S1130160808308959091080690FDFCCFE0E0F6E0CE
S1130170868381E0808780910B0680FFFCCFE0E0DE
S1130180F6E08089618970E0762F6627680F711D1B
S1130190072E000C880B990B08950E94870081E0BC
S11301A08093080680910B068823E1F38091100662
S11301B090911106813F910510F081E0089580E04F
S11301C00895E0EAF4E091E0918382E081839683EC
S11301D08683089521E030E002C0220F331F8A9500
S11301E0E2F72093A60408951F920F920FB60F9280
S11301F011242F933F934F935F936F937F938F9328
S11302009F93AF93BF93EF93FF9381E08093860A0C
S113021080912A38882319F11092113810921238DB
S11302201092263810922738809128388F5F809357
S1130230283880912838843608F491C010922838E0
S1130240809129388F5F809329388091293890E0F4
S11302500E94080B87E694E60E94370B80C08091C9
S11302601038882391F0109228381092293810926F
S113027026381092273880911138909112380196BF
S113028080931138909312386AC080912238882361
S113029009F465C010922838109229381092113848
S11302A010921238809125388823D9F0809126380D
S11302B0909127380196809326389093273880911F
S11302C02638909127388436910508F448C0109256
S11302D02638109227381092253880E00E94B40AFC
S11302E03EC0809124388823D1F0809126389091A3
S11302F027380196809326389093273880912638A2
S113030090912738843F914050F1109226381092F2
S113031027381092243880E00E94BA0A20C08091C5
S113032023388823E1F0809126389091273801966C
S113033080932638909327388091263890912738D7
S1130340883E934060F0109226381092273810921D
S1130350233880E00E94B40A80E00E94BA0AFF9128
S1130360EF91BF91AF919F918F917F916F915F9129
S11303704F913F912F910F900FBE0F901F901895A2
S1130380CF9380E39EE50E94370B87E69EE50E94AB
S1130390370BC0E047C0A89528E038E34AE058E3AB
S11303A06CE078E38EE098E30E94FE0981EB9EE521
S11303B00E94370B80910E3890910F380E94080BE1
S11303C085EB9EE50E94370B80910C3890910D3897
S11303D00E94080B8AEB9EE50E94370B80910A3835
S11303E090910B380E94080B8FEB9EE50E94370B0F
S11303F080910838909109380E94080B87E694E6AA
S11304000E94370B2FEF80E792E02150804090400C
S1130410E1F700C000008091240888231CF40E94A6
S1130420630BC82F8C2F90E00E94F40B8137910549
S113043009F0B1CFCF910895CF93DF9380E00E946C
S1130440CD00C82F81E00E94CD00D82F82E00E9409
S1130450CD00CC2341F0D11106C0811104C081E04C
S113046080932D381AC0C11108C0DD2331F08111E9
S113047004C081E080932C3810C0C11108C0D11190
S113048006C0882321F081E080932B3806C01092A7
S11304902D3810922C3810922B38DF91CF9108957B
S11304A080910738813071F018F0823099F0089506
S11304B010922E3880912D38882389F081E0809322
S11304C00738089580912D38811109C082E0809306
S11304D00738089581E080932E38109207380895E4
S11304E080910638813071F018F0823099F00895C7
S11304F010922F3880912C38882389F081E08093E2
S11305000638089580912C38811109C082E08093C7
S11305100638089581E080932F38109206380895A4
S113052080910538813071F018F0823099F0089587
S11305301092303880912B38882389F081E08093A1
S11305400538089580912B38811109C082E0809389
S11305500538089581E08093303810920538089565
S11305600E9450020E9470020E949002089580919D
S11305703038882359F0809101388F5F8093013897
S1130580843010F0109201381092303880912F3856
S1130590882339F0809100388A3F18F4865F80936D
S11305A0003880912E38882339F0809100388823D0
S11305B019F08A508093003880910138813071F0AD
S11305C028F0823099F08330D1F00895809100387A
S11305D00E94B40A80E00E94BA0A089580E00E9452
S11305E0B40A809100380E94BA0A089580910038B4
S11305F00E94B40A809100380E94BA0A089580E0EB
S11306000E94B40A80E00E94BA0A0895CF9384EC51
S11306109EE50E94370B8CEE9EE50E94370BC0E0EE
S11306200EC0A8950E941C020E94B0020E94B7024C
S11306308091240888231CF40E94630BC82F8C2FFC
S113064090E00E94F40B8137910559F780E00E94F5
S1130650B40A80E00E94BA0ACF910895CF938DE640
S11306609FE50E94370B87E99FE50E94370B0E94A4
S1130670A80A81E080932A38C0E008C0A895809138
S1130680240888231CF40E94630BC82F8C2F90E04D
S11306900E94F40B8137910589F70E94AE0A1092EB
S11306A029381092283810922A38CF910895CF9380
S11306B081EC9FE50E94370B82EF9FE50E94370B88
S11306C00E94A80A81E080932238C0E046C0A89521
S11306D080E00E94CD00882379F080912438811134
S11306E00BC080912338811107C08FEF0E94B40A98
S11306F081E0809325382AC081E00E94CD008823C0
S113070079F08091253881110BC0809123388111B3
S113071007C08FEF0E94BA0A81E08093243816C084
S113072082E00E94CD00882389F0809125388111D0
S11307300DC080912438811109C08FEF0E94B40A42
S11307408FEF0E94BA0A81E08093233880912408B5
S113075088231CF40E94630BC82F8C2F90E00E9406
S1130760F40B8137910509F0B2CF0E94AE0A1092C2
S11307702638109227381092223880E00E94B40A5A
S113078080E00E94BA0ACF910895CF9382E890E660
S11307900E94370B8BEB90E60E94370BC0E005C03C
S11307A00E945A0BC82F0E94010B8C2F90E00E94CC
S11307B0F40B81379105A1F787E694E60E94370B85
S11307C0CF910895A8950E945A0B90E00E94FC0BCB
S11307D09C01873421F0823511F0893599F733274C
S11307E02235310539F029353105A1F02734310599
S11307F0C9F408C081E08093183810921738109219
S11308001638089581E080931738109218381092A2
S11308101638089581E08093163810921738109294
S11308201838089510921838109217381092163804
S11308300895CF93DF9380E00E94CD00C82F81E01C
S11308400E94CD00D82F82E00E94CD00CC2341F03D
S1130850D11106C0811104C081E08093213836C0D3
S1130860C11108C0DD2331F0811104C081E08093FF
S113087020382CC0C11108C0D11106C0882321F032
S113088081E080931F3822C0CC23D1F0DD23C1F056
S11308908823B1F081E080931938109221381092A6
S11308A0203810921F3880E00E94EA0081E00E9404
S11308B0EA0088EE90E60E94370B0E94E20306C02D
S11308C0109221381092203810921F38DF91CF9166
S11308D008950E941904089580910438813081F0AC
S11308E018F08230C1F0089510921C3810921E380E
S11308F0809121388823A1F081E080930438089501
S113090081E080931E3880912138811109C082E0F2
S113091080930438089581E080931C381092043841
S1130920089580910338813081F018F08230C1F04D
S1130930089510921B3810921D3880912038882316
S1130940A1F081E080930338089581E080931D38FD
S113095080912038811109C082E080930338089582
S113096081E080931B3810920338089580910238F7
S1130970813071F018F08230C1F0089510921A3865
S113098080911F388823B1F081E080930238089564
S113099081E080931E3880931D3880911F38811127
S11309A009C082E080930238089581E080931A3868
S11309B010920238089580911838882321F081E03C
S11309C0809315380895109215380895809117383A
S11309D0882321F081E0809314380895109214380C
S11309E0089580911638882321F081E0809313388C
S11309F0089510921338089580911938882339F096
S1130A000E94DB040E94E6040E94F10408950E94FF
S1130A106C040E9491040E94B604089580911938D0
S1130A20882309F4A2C080911538882379F18FEFC7
S1130A300E94B40A0E94A80A8CE191E60E94370B36
S1130A400E945A0B0E94AE0A80E00E94B40A84E419
S1130A5091E60E94370B2091113830911238C90168
S1130A60880F991F220F331F220F331F220F331FAA
S1130A70820F931F0E94080B8EE591E60E94370BAC
S1130A80109211381092123810921538809114383F
S1130A90882379F18FEF0E94BA0A0E94A80A8EE691
S1130AA091E60E94370B0E945A0B0E94AE0A80E026
S1130AB00E94BA0A88E991E60E94370B2091113806
S1130AC030911238C901880F991F220F331F220F4A
S1130AD0331F220F331F820F931F0E94080B8EE5D2
S1130AE091E60E94370B109211381092123810922E
S1130AF01438809113388823A9F18FEF0E94BA0A21
S1130B008FEF0E94B40A0E94A80A84EB91E60E9427
S1130B10370B0E945A0B0E94AE0A80E00E94BA0A68
S1130B2080E00E94B40A8FED91E60E94370B209179
S1130B30113830911238C901880F991F220F331FC1
S1130B40220F331F220F331F820F931F0E94080BA3
S1130B508EE591E60E94370B1092113810921238EC
S1130B601092133810921938089580911E388823F2
S1130B7021F08FEF0E94B40A03C080E00E94B40AFF
S1130B8080911D38882321F08FEF0E94BA0A03C098
S1130B9080E00E94BA0A80911C38882321F08CEFEF
S1130BA091E60E94370B80911B38882321F087E15E
S1130BB092E60E94370B80911A38882321F082E351
S1130BC092E60E94370B0895CF938CE492E60E943C
S1130BD0370B82E892E60E94370B81E0809310384D
S1130BE0C0E00EC0A8950E9469040E94FC040E9403
S1130BF00E058091240888231CF40E94630BC82FDF
S1130C008C2F90E00E94F40B8137910559F780E016
S1130C100E94B40A80E00E94BA0A10921038CF9160
S1130C200895CF9383EF92E60E94370B84E293E614
S1130C300E94370BC0E031C080E00E94BA0A8FEFF7
S1130C400E94B40A2AEA80EA91E021508040904050
S1130C50E1F700C0A8958FEF0E94BA0A80E00E94D5
S1130C60B40A2AEA80EA91E0215080409040E1F7FA
S1130C7000C0A8958FEF0E94B40A2AEA80EA91E0A6
S1130C80215080409040E1F700C0A895809124084D
S1130C9088231CF40E94630BC82F8C2F90E00E94C1
S1130CA0F40B8137910541F680E00E94B40A80E09C
S1130CB00E94BA0ACF910895CF9385E493E60E94E7
S1130CC0370B81E793E60E94370BC0E048C0A89534
S1130CD028E038E34AE058E36CE078E38EE098E3F8
S1130CE00E94FE0980910E3890910F38805E9C4FCF
S1130CF08134964038F08FEF0E94B40A80E00E945D
S1130D00BA0A26C080910C3890910D38805E9C4FB1
S1130D108134964038F080E00E94B40A8FEF0E943C
S1130D20BA0A16C080910A3890910B38805E9C4FA5
S1130D308134964038F08FEF0E94B40A8FEF0E94FE
S1130D40BA0A06C080E00E94B40A80E00E94BA0A8F
S1130D508091240888231CF40E94630BC82F8C2FD5
S1130D6090E00E94F40B8137910509F0B0CF80E048
S1130D700E94B40A80E00E94BA0ACF910895CF93EA
S1130D8081EE93E60E94370B8DE094E60E94370BC8
S1130D90C0E044C0A89528E038E34AE058E36CE09A
S1130DA078E38EE098E30E94FE0980910C389091DC
S1130DB00D3899231CF49195819591099C01809398
S1130DC00C3890930D3880910E3890910F389923F8
S1130DD01CF491958195910980930E3890930F3866
S1130DE0C90199230CF40396959587959595879554
S1130DF00E94B40A80910E3890910F3899230CF414
S1130E00039695958795959587950E94BA0A809142
S1130E10240888231CF40E94630BC82F8C2F90E0B5
S1130E200E94F40B8137910509F0B4CF80E00E9451
S1130E30B40A80E00E94BA0ACF9108958F929F92DB
S1130E40AF92BF92CF92DF92EF92FF92B82E0E94A0
S1130E50B2006B017C01B1104AC0AAEFB0E09B0163
S1130E60AC010E94CB0B2FEF33E040E050E00E9436
S1130E70880B49015A0169017A01809131389091B6
S1130E803238A0913338B0913438BB23ACF4BC0170
S1130E90CD01645F71408109910928EE33E040E09F
S1130EA050E00E94880BC501B4010E94880BC20E59
S1130EB0D31EE41EF51E1BC0181619061A061B06BF
S1130EC0B4F4BC01CD016C507E4F8F4F9F4F28EE80
S1130ED033E040E050E00E94880BC501B4010E9459
S1130EE0880B75016401C20ED31EE41EF51EC701F2
S1130EF0B601FF90EF90DF90CF90BF90AF909F909E
S1130F008F9008958F929F92AF92BF92CF92DF926B
S1130F10EF92FF920F931F93CF93DF93CDB7DEB77A
S1130F206997CDBFDEBF8AE694E60E94370B0E9424
S1130F305A0BF82E0E945A0B082F0E945A0B182F96
S1130F400E945A0BF9820A831B838C831D82CE0173
S1130F5001960E94D60B6C01990FEE08FF08FF92D0
S1130F60EF92DF92CF9283EA94E69F938F938E0160
S1130F700A5F1F4F1F930F930E940C0CC8010E941D
S1130F80370B80E00E94B2009B01AC01AAEFB0E0F5
S1130F900E94CB0B2FEF33E040E050E00E94660B41
S1130FA049015A01BF92AF929F922F9381EB94E62D
S1130FB09F938F931F930F930E940C0CC8010E9460
S1130FC0370BC818D908EA08FB08FF92EF92DF92A2
S1130FD0CF9281EC94E69F938F931F930F930E947B
S1130FE00C0CC8010E94370BCDBFDEBFC114D10465
S1130FF0E104F10419F1A8EEB3E0A50194010E9403
S1131000CB0B97018601FF2024F40F5F1F4F2F4F56
S11310103F4F3595279517950795600F711F821FD0
S1131020931FA70196010E94880B209331383093B7
S11310303238409333385093343808C010923138E2
S1131040109232381092333810923438609131381B
S11310507091323880E090E00E94C40E8091343860
S11310608F93809133388F93809132388F9380910E
S113107031388F938DEC94E69F938F938E010A5FA2
S11310801F4F1F930F930E940C0CC8010E94370B33
S1131090CDBFDEBF6996CDBFDEBFDF91CF911F917B
S11310A00F91FF90EF90DF90CF90BF90AF909F9003
S11310B08F9008950F931F93CF93DF93CDB7DEB72F
S11310C02A97CDBFDEBF89ED94E60E94370B81E1FC
S11310D095E60E94370B0E94990010E038C0A8954D
S11310E080E00E941E078E010F5F1F4F2AE0F80167
S11310F011922A95E9F79F938F937F936F938BEBCC
S113110094E69F938F931F930F930E940C0CC80136
S11311100E94370B80912408CDBFDEBF882324F4BE
S11311200E94630B182F01C010E0812F90E00E94F1
S1131130F40B8336910511F40E9482073FEF80E798
S113114092E0315080409040E1F700C00000812FD0
S113115090E00E94F40B8137910509F0C0CF0E9402
S113116080002A96CDBFDEBFDF91CF911F910F91F2
S1131170089589E595E60E94370B8EE595E60E9471
S1131180370B089582E695E60E94370BFFCF80E087
S113119090E00E94BF0E092E000CAA0BBB0B80939B
S11311A0313890933238A0933338B09334380E9456
S11311B0CE0A0E94BF090E9480000E94E10088E2DA
S11311C098E60E949D0A0E94C00A0E94F109789440
S11311D00E94B908A8952AEA81E194E02150804050
S11311E09040E1F70000A89581E795E60E94370B4F
S11311F08DEB95E60E94370B86ED95E60E94370B42
S113120080EE95E60E94370B8CEE95E60E94370B34
S11312108FEF95E60E94370B8AE196E60E94370B22
S113122082E396E60E94370B85E496E60E94370B2C
S113123083E596E60E94370B81E696E60E94370B1B
S11312408BE796E60E94370B8EE896E60E94370BF2
S11312500E945A0B90E00E94F40BFC01FF27E15618
S1131260F109E931F10538F5E85BFF4F0C94A70B60
S11312700E94C00124C00E94060321C00E942E03C4
S11312801EC00E9457031BC00E94C50318C00E94C1
S1131290E40515C00E94110612C00E945C060FC02E
S11312A00E94BF060CC00E945A0809C00E94B908D7
S11312B006C00E94C2088AE996E60E94370B87E6B8
S11312C094E60E94370B8FCFCF92DF92EF92FF927A
S11312D00F931F938B019C0199230CF443C080E06E
S11312E090E0A0E0B0E408C0B595A79597958795E0
S11312F0B595A79597958795081719072A073B076A
S11313009CF340E050E0BA0124C06A017B01C80E9E
S1131310D91EEA1EFB1E0C151D052E053F056CF09B
S11313200C191D092E093F09759567955795479521
S1131330480F591F6A1F7B1F04C075956795579501
S11313404795B595A79597958795B595A79597953D
S113135087950097A105B105C1F6342F252F862F57
S1131360972F04C03FEF2FEF8FEF9FEF632F722F64
S11313701F910F91FF90EF90DF90CF900895E0E0E0
S1131380F4E080E5818380E2828380E8818387E2E0
S11313908093C00808958093C4088091C30888236B
S11313A0E4F78091C408089580E8809306040895C2
S11313B080E8809305040895CF93DF93D82FC62F38
S11313C00E94D4098D2F8F770E94CB0980E00E9460
S11313D0CB098C2F0E94CB090E94D809DF91CF91B1
S11313E0089560E085E10E94DC0960E189E10E94E2
S11313F0DC0967E085E10E94DC0908956F927F9221
S11314008F929F92AF92BF92CF92DF92EF92FF9210
S11314100F931F93CF93DF938C01EB016A01790142
S11314200E94D40984E80E94CB0980E00E94CB0981
S113143080E00E94CB09682E80E00E94CB09782EC0
S113144080E00E94CB09882E80E00E94CB09982E70
S113145080E00E94CB09A82E80E00E94CB09B82E20
S11314600E94D809872D90E0982F882786299C010F
S113147022953295307F3227207F322793FF02C096
S11314802F5F3F4F35952795F80120833183892DB0
S113149090E0982F882788299C0122953295307FE7
S11314A03227207F322793FF02C02F5F3F4F3595AD
S11314B02795288339838B2D90E0982F88278A29B4
S11314C0AC0142955295507F5427407F542793FF97
S11314D002C04F5F5F4F55954795F6014083518396
S11314E0F801A081B1819D010E94AD0B4B015C010B
S11314F0A881B9819D010E94AD0B860E971EA81E7E
S1131500B91E9A01DA010E94AD0B680D791D8A1D7E
S11315109B1D0E946409F70160837183DF91CF9161
S11315201F910F91FF90EF90DF90CF90BF90AF90FD
S11315309F908F907F906F9008959C01E0E8FAE06F
S113154090819E7F90832487358781E085830895E9
S1131550E0E8FAE08081816080830895E0E8FAE0C1
S113156080818E7F8083089590E08093280A9093F1
S1131570290A089590E080932A0A90932B0A0895EB
S1131580E0E0FAE08FEF90E086A397A383E3818302
S113159085E08093E40581E0808308950F931F9391
S11315A0A09122110A2E000CBB0BBC5F27E534E08E
S11315B00E94C40B8B019C01992324F401501C4FFD
S11315C02F4F3F4FD901C801072E7AE0B595A79553
S11315D0979587957A95D1F7702DE0E2F8E08087AA
S11315E09187A0E4B4E081E011968C93119782E096
S11315F012968C9380EC868383E087831F910F91EE
S113160008959091240895FFFCCF809322080895B3
S11316101F93CF93DF93CDB7DEB72A97CDBFDEBF3D
S11316209F938F938DEB96E69F938F93CE010196B4
S11316309F938F930E940C0C0F900F900F900F901C
S11316400F900F9010E003C00E94010B1F5FE1E0B8
S1131650F0E0EC0FFD1FE10FF11D80818111F4CF4B
S11316602A96CDBFDEBFDF91CF911F910895EF92EF
S1131670FF920F931F93CF93DF937C01FC010190A2
S11316800020E9F731978F01081B190BC0E0D0E067
S113169007C0F701EC0FFD1F80810E94010B21960A
S11316A0C017D107B0F3DF91CF911F910F91FF9035
S11316B0EF90089501C0A895809124088823DCF751
S11316C0809120080895809120080895A1E21A2E9F
S11316D0AA1BBB1BFD010DC0AA1FBB1FEE1FFF1FD2
S11316E0A217B307E407F50720F0A21BB30BE40B22
S11316F0F50B661F771F881F991F1A9469F7609569
S11317007095809590959B01AC01BD01CF01089522
S1131710052E97FB1EF400940E949F0B57FD07D0E3
S11317200E94660B07FC03D04EF40C949F0B50955B
S11317304095309521953F4F4F4F5F4F08959095B9
S11317408095709561957F4F8F4F9F4F0895EE0F51
S1131750FF1F0590F491E02D09940E94B50B3323EB
S113176012F48A1B9B0B0C94C60BA29FB001B39F6F
S1131770C001A39F700D811D1124911DB29F700D96
S1131780811D1124911D08950E94B50BB7FF089582
S1131790821B930B08950E94B50BA59F900DB49FD7
S11317A0900DA49F800D911D11240895FC0188279C
S11317B09927E89421912032E9F3293010F02E3052
S11317C0C8F32B3241F02D3239F4689404C00E94DE
S11317D0040C820F911D219120532A30C0F31EF472
S11317E0909581959F4F08959111089581548A5140
S11317F008F4805E855A08959111089581568A519E
S113180008F48052855808957AE0979F902D879F19
S1131810802D910D11240895AEE0B0E0E2E1FCE0EA
S11318200C94F30E0D891E8986E08C8309831A8338
S11318308FEF9FE78D839E83AE01475E5F4F6F8975
S1131840788DCE0101960E942E0CEF81F885E00F71
S1131850F11F10822E96E4E00C940C0FABE0B0E084
S1131860E4E3FCE00C94E50E6C017B018A01FC01CD
S113187016821782838181FFCCC1CE0101963C017F
S1131880F6019381F70193FD859193FF81917F0187
S1131890882309F4BAC1853239F493FD859193FF05
S11318A081917F01853229F4B60190E00E94250ED2
S11318B0E7CF912C212C312CFFE1F315D8F08B329A
S11318C079F038F4803279F08332A1F4232D206149
S11318D01DC08D3261F0803369F4232D216016C060
S11318E0832D8260382EE32DE4603E2E2AC0F32D32
S11318F0F8601DC037FC2DC020ED280F2A3040F0C1
S11319008E32B9F436FC81C1232D2064322E19C0E5
S113191036FE06C08AE0989E200D1124922E11C036
S1131920EAE02E9E200D1124222EF32DF0623F2E8C
S113193008C08C3621F4832D8068382E02C0883686
S113194041F4F70193FD859193FF81917F0181110A
S1131950B3CF982F9F7D9554933028F40C5F1F4F7D
S11319609FE399830DC0833631F0833771F083355B
S113197009F059C021C0F801808189830E5F1F4F8F
S113198088248394912C530113C02801F2E04F0E54
S1131990511CF801A080B18036FE03C0692D70E0AF
S11319A002C06FEF7FEFC5010E941A0E4C01820145
S11319B0F32DFF773F2E16C0280122E0420E511C62
S11319C0F801A080B18036FE03C0692D70E002C02A
S11319D06FEF7FEFC5010E940F0E4C01F32DF068ED
S11319E03F2E820133FC1BC0822D90E0881699069D
S11319F0B0F4B60180E290E00E94250E2A94F4CF60
S1131A00F50137FC859137FE81915F01B60190E0C5
S1131A100E94250E21102A9421E0821A9108811433
S1131A20910471F7E8C0843611F0893641F5F80164
S1131A3037FE07C060817181828193810C5F1F4FE3
S1131A4008C060817181072E000C880B990B0E5F12
S1131A501F4FF32DFF763F2E97FF09C09095809579
S1131A60709561957F4F8F4F9F4FF0683F2E2AE00E
S1131A7030E0A3010E94610E882E861845C0853788
S1131A8031F4232D2F7EB22E2AE030E025C0932D91
S1131A90997FB92E8F36C1F018F4883579F0B5C026
S1131AA0803719F0883721F0B0C0E92FE061BE2EED
S1131AB0B4FE0DC0FB2DF460BF2E09C034FE0AC075
S1131AC0292F2660B22E06C028E030E005C020E1B0
S1131AD030E002C020E132E0F801B7FE07C06081C7
S1131AE07181828193810C5F1F4F06C06081718177
S1131AF080E090E00E5F1F4FA3010E94610E882ECC
S1131B008618FB2DFF773F2E36FE0DC0232D2E7F2A
S1131B10A22E891458F434FE0BC032FC09C0832D64
S1131B208E7EA82E05C0B82CA32C03C0B82C01C0EF
S1131B30B92CA4FE0FC0FE01E80DF11D8081803395
S1131B4021F49A2D997EA92E09C0A2FE06C0B39451
S1131B50B39404C08A2D867809F0B394A3FC11C011
S1131B60A0FE06C0B21488F4280C922C9B180EC058
S1131B70B21460F4B60180E290E00E94250EB394A2
S1131B80F7CFB21418F42B1802C0982C212CA4FE01
S1131B9010C0B60180E390E00E94250EA2FE17C09B
S1131BA0A1FC03C088E790E002C088E590E0B6019C
S1131BB00CC08A2D867859F0A1FE02C08BE201C0C8
S1131BC080E2A7FC8DE2B60190E00E94250E891404
S1131BD038F4B60180E390E00E94250E9A94F7CF82
S1131BE08A94F301E80DF11D8081B60190E00E9412
S1131BF0250E8110F5CF222009F442CEB60180E2F1
S1131C0090E00E94250E2A94F6CFF60186819781F2
S1131C1002C08FEF9FEF2B96E2E10C94FE0EFC01C5
S1131C200590615070400110D8F7809590958E0F03
S1131C309F1F0895FC016150704001900110D8F776
S1131C40809590958E0F9F1F08950F931F93CF93A8
S1131C50DF93FB01238121FD03C08FEF9FEF2CC095
S1131C6022FF16C0468157812481358142175307CC
S1131C7044F4A081B1819D012F5F3F4F20833183C4
S1131C808C93268137812F5F3F4F2683378314C07F
S1131C908B01EC01FB010084F185E02D0995892B72
S1131CA0E1F6D80116968D919C9117970196169698
S1131CB08D939C931797CE01DF91CF911F910F9134
S1131CC00895FA01AA27283051F1203181F1E894CE
S1131CD06F936E7F6E5F7F4F8F4F9F4FAF4FB1E01B
S1131CE03ED0B4E03CD0670F781F891F9A1FA11D16
S1131CF0680F791F8A1F911DA11D6A0F711D811D17
S1131D00911DA11D20D009F468943F912AE0269FDB
S1131D1011243019305D3193DEF6CF010895462F3A
S1131D204770405D4193B3E00FD0C9F7F6CF462F1B
S1131D304F70405D4A3318F0495D31FD4052419384
S1131D4002D0A9F7EACFB4E0A69597958795779541
S1131D506795BA95C9F700976105710508959B01C8
S1131D60AC010A2E06945795479537952795BA9551
S1131D70C9F7620F731F841F951FA01D08950E9449
S1131D80CD0E8081918108950E94D10E272F0C944D
S1131D90D20E03D0808199270895FC01E050FC4EB7
S1131DA00895262FAF93BF93E0E0F0E1328131FD37
S1131DB0FDCFDC01A050BC4E2C932DE924BF23E0C1
S1131DC020830196BF91AF9108952F923F924F9235
S1131DD05F926F927F928F929F92AF92BF92CF92B7
S1131DE0DF92EF92FF920F931F93CF93DF93CDB7C0
S1131DF0DEB7CA1BDB0BCDBFDEBF09942A88398846
S1131E0048885F846E847D848C849B84AA84B9848E
S1131E10C884DF80EE80FD800C811B81AA81B9819A
S1131E20CE0FD11DCDBFDEBFED010895F894FFCFD5
S1131E30596F752061726520696E20526561642056
S1131E40616363656C65726F6D65746572206D6F37
S1131E50646520287072657373207120746F206527
S1131E60786974290A0D00546869732074656C6C70
S1131E707320796F752074686520782C20792C2064
S1131E80616E64207A20616363656C657261746954
S1131E906F6E7320616E642074686520746F746162
S1131EA06C20616363656C65726174696F6E0A0DA1
S1131EB000583A200020593A2000205A3A200020A5
S1131EC0413A2000596F752061726520696E205077
S1131ED0574D206D6F64652028707265737320718F
S1131EE020746F2065786974290A0D00596F752074
S1131EF063616E206368616E676520746865206342
S1131F006F6C6F7220776974682074686520484F1D
S1131F10524E20627574746F6E20616E64206D6120
S1131F206B6520746865206C696768742064696DEA
S1131F306D65722077697468207468652049474E1E
S1131F403120627574746F6E20616E6420627269F0
S1131F5067687465722077697468207468652049BD
S1131F60474E3220627574746F6E0A0D00596F7596
S1131F702061726520696E2054696D6572206D6FF1
S1131F80646520287072657373207120746F2065F6
S1131F90786974290A0D00546869732074656C6C3F
S1131FA07320686F77206D616E79207365636F6E3F
S1131FB064732068617665207061737365640A0DCB
S1131FC000596F752061726520696E2054696D65D2
S1131FD07220627574746F6E206D6F646520287052
S1131FE072657373207120746F2065786974290A8F
S1131FF00D005072657373696E672049474E312036
S11320007475726E732074686520726564206C69DF
S1132010676874206F6E20666F7220312073656369
S11320206F6E642E2049474E32207475726E732091
S113203074686520677265656E206C6967687420D2
S11320406F6E20666F722035207365636F6E6473E4
S11320502E20484F524E207475726E73207468653A
S11320602079656C6C6F77206C69676874206F6E7B
S113207020666F72203130207365636F6E64730A5B
S11320800D00596F752061726520696E2053657269
S113209069616C20636F6D6D756E69636174696FDE
S11320A06E206D6F646520287072657373207120D3
S11320B0746F2065786974290A0D00416E7974681B
S11320C0696E6720796F7520747970652077696C03
S11320D06C2062652073656E74206261636B20748A
S11320E06F20796F750A0D004769766520746865FD
S11320F0206C6574746572206F6620746865206C4A
S11321006967687420796F752077616E7420746FC5
S1132110207475726E206F6E3A0D0A0050726573EA
S11321207320616E79206B657920746F20747572E9
S11321306E2074686520726564204C4544206F6687
S1132140660A0D00526564204C4544207761732073
S11321506F6E20666F722061626F75742000206D4F
S1132160696C6C697365636F6E64730A0D005072F9
S113217065737320616E79206B657920746F2074A8
S113218075726E2074686520677265656E204C45B3
S113219044206F66660A0D00477265656E204C45E3
S11321A04420776173206F6E20666F722061626FC6
S11321B075742000507265737320616E79206B65AD
S11321C07920746F207475726E2074686520796547
S11321D06C6C6F77204C4544206F66660A0D00597D
S11321E0656C6C6F77204C454420776173206F6E6B
S11321F020666F722061626F7574200049474E5FDC
S11322003120627574746F6E20776173207072650B
S1132210737365640D0A0049474E5F32206275741A
S1132220746F6E2077617320707265737365640DCB
S11322300A00484F524E20627574746F6E207761A5
S11322407320707265737365640D0A00596F75208D
S113225061726520696E2053657269616C206275D4
S113226074746F6E204C4544206D6F646520287033
S113227072657373207120746F2065786974290AFC
S11322800D00596F752061726520616C657274650B
S113229064207768656E206120627574746F6E20A7
S11322A06973207072657373656420616E6420695C
S11322B06620796F7520707265737320616C6C2071
S11322C0746872656520627574746F6E73206174CE
S11322D0206F6E63652C20736F6D657468696E671B
S11322E0207370656369616C2068617070656E73DA
S11322F00A0D00596F752061726520696E20426C69
S1132300696E6B696E67204C4544206D6F6465206F
S1132310287072657373207120746F2065786974F6
S1132320290A0D00546865204C4544206368616E99
S113233067657320636F6C6F727320726170696478
S11323406C790A0D00596F752061726520696E20E1
S11323504C454420535049206D6F646520287072A9
S1132360657373207120746F2065786974290A0D70
S113237000546865204C4544206368616E6765734A
S113238020636F6C6F72206261736564206F6E20CE
S11323907468652074696C742028677265656E20A2
S11323A0696E207820646972656374696F6E2C208D
S11323B072656420696E207920646972656374694A
S11323C06F6E2C20616E642079656C6C6F77206968
S11323D06E207A20646972656374696F6E290A0DD0
S11323E000596F752061726520696E2050574D2029
S11323F0535049206D6F6465202870726573732093
S11324007120746F2065786974290A0D0054686519
S1132410204C4544206368616E676573206272696D
S11324206768746E657373206261736564206F6E90
S1132430207468652074696C742028677265656E01
S113244020696E207820646972656374696F6E20F8
S1132450616E642072656420696E207920646972FB
S1132460656374696F6E290A0D00456E7465722088
S11324706D756C74696D657465722D6D65617375C8
S113248072656420766F6C746167652028313256FA
S113249020776F756C642062652031323030293AC0
S11324A00A0D0041637475616C3A20256C640A0D51
S11324B0004D656173757265643A20256C640A0D7C
S11324C00054656D703A20256C640A0D00476169FB
S11324D06E3A20256C640A0D00596F75206172658F
S11324E020696E20426174746572792063616C693D
S11324F062726174696F6E206D6F646520287072FA
S1132500657373207120746F2065786974290A0DCE
S11325100054686973206F757470757473207468DF
S1132520652072656164696E67206F6620746865F2
S1132530206261747465727920766F6C746167656A
S11325402E205072657373206320746F2063616C56
S11325506962726174650A0D001B5B324A001B5B81
S11325604800526573657474696E672E2E2E0A0DC9
S113257000506C65617365207479706520746865BA
S1132580206C657474657220636F72726573706F0A
S11325906E64696E6720746F2077686174206D6F54
S11325A0646520796F7520776F756C64206C696B36
S11325B06520746F20656E7465720A0D0009613AB6
S11325C0205265616420616363656C65726F6D653B
S11325D07465720A0D0009703A2050574D0A0D00B7
S11325E009743A2054696D65720A0D0009753A2020
S11325F054696D657220627574746F6E0A0D0009FA
S1132600733A2053657269616C20636F6D6D756EEA
S113261069636174696F6E0A0D00096C3A20536531
S11326207269616C20627574746F6E204C45440A43
S11326300D0009623A20426C696E6B696E67204C2A
S113264045440A0D0009693A204C45442053504939
S11326500A0D0009763A2050574D205350490A0D6F
S11326600009793A20426174746572792063616C5F
S11326706962726174696F6E0A0D0009633A2043DE
S11326806C6561722073637265656E0A0D00097270
S11326903A2052657365740A0D00496E76616C695F
S11326A06420696E7075742E20506C6561736520AA
S11326B074727920616761696E2E0A0D00256400C9
S10526C0C80349
S9030000FC
