S01300005072657373427574746F6E2E7372656388
S11300000C9448000C9452000C9452000C9452002E
S11300100C9452000C9452000C9452000C94520014
S11300200C9452000C9452000C9452000C94520004
S11300300C9452000C9452000C9452000C945200F4
S11300400C9452000C9452000C9452000C945200E4
S11300500C9452000C9452000C9452000C945200D4
S11300600C9452000C9452000C9452000C945200C4
S11300700C9452000C9452000C9452000C945200B4
S11300800C9452000C9452000C9452000C945200A4
S113009011241FBECFEFCDBFDFE3DEBF0E94870078
S11300A00C94C0000C9400000F931F93A091221194
S11300B00A2E000CBB0BBC5F27E534E00E94AA00AB
S11300C08B019C01992324F401501C4F2F4F3F4F67
S11300D0D901C801072E7AE0B595A795979587951C
S11300E07A95D1F7702DE0E2F8E080879187A0E45B
S11300F0B4E081E011968C93119782E012968C9370
S113010080EC868383E087831F910F910895E0EA52
S1130110F4E081E081838683E0E0F6E097E0908379
S11301209EE0968380870E945400A89580911006D3
S1130130909111068F3F910520F081E08093A504F2
S113014003C081E08093A6048AE09AE10197F1F765
S113015000C0EBCF0E94B100B7FF0895821B930B40
S11301600895A29FB001B39FC001A39F700D811D8C
S11301701124911DB29F700D811D1124911D0895AC
S1070180F894FFCF1D
S9030000FC
