S01300005072657373427574746F6E2E7372656388
S11300000C9448000C9452000C9452000C9452002E
S11300100C9452000C9452000C9452000C94520014
S11300200C9452000C9452000C9452000C94520004
S11300300C9452000C9452000C9452000C945200F4
S11300400C9452000C9452000C9452000C945200E4
S11300500C9452000C9452000C9452000C945200D4
S11300600C9452000C9452000C9452000C945200C4
S11300700C9452000C9452000C9452000C945200B4
S11300800C9452000C9452000C9452000C945200A4
S113009011241FBECFEFCDBFDFE3DEBF0E945400AB
S11300A00C9468000C94000081E08093A004E0EAC2
S11300B0F4E0948181E0892784832FE387E094E04E
S11300C0215080409040E1F700C00000A895EFCF98
S10700D0F894FFCFCE
S9030000FC
