S0150000416363656C65726F6D657465722E73726563D4
S11300000C9448000C9452000C9452000C9452002E
S11300100C9452000C9452000C9452000C94520014
S11300200C9452000C9452000C9452000C94520004
S11300300C9452000C9452000C9452000C945200F4
S11300400C9452000C9452000C9452000C945200E4
S11300500C9452000C9452000C9452000C945200D4
S11300600C9452000C9452000C9452000C945200C4
S11300700C9452000C9452000C9452000C945200B4
S11300800C9452000C9452000C9452000C945200A4
S113009011241FBECFEFCDBFDFE3DEBF0E94A1015D
S11300A00C948A050C940000CF92DF92EF92FF9299
S11300B00F931F938B019C0199230CF443C080E0A0
S11300C090E0A0E0B0E408C0B595A7959795879512
S11300D0B595A79597958795081719072A073B079C
S11300E09CF340E050E0BA0124C06A017B01C80ED1
S11300F0D91EEA1EFB1E0C151D052E053F056CF0CE
S11301000C191D092E093F09759567955795479553
S1130110480F591F6A1F7B1F04C075956795579533
S11301204795B595A79597958795B595A79597956F
S113013087950097A105B105C1F6342F252F862F89
S1130140972F04C03FEF2FEF8FEF9FEF632F722F96
S11301501F910F91FF90EF90DF90CF900895E0E012
S1130160F4E080E5818380E2828380E8818387E212
S11301708093C00808958093C4088091C30888239D
S1130180E4F78091C408089580E8809306040895F4
S113019080E8809305040895CF93DF93D82FC62F6A
S11301A00E94C4008D2F8F770E94BB0080E00E94C4
S11301B0BB008C2F0E94BB000E94C800DF91CF912E
S11301C00895CF93C82F0E94C4008C2F80680E948A
S11301D0BB0080E00E94BB0080E00E94BB00C82FEF
S11301E00E94C8008C2FCF91089560E085E10E94A1
S11301F0CC0060E189E10E94CC0067E085E10E94C7
S1130200CC0008956F927F928F929F92AF92BF928B
S1130210CF92DF92EF92FF920F931F93CF93DF93CE
S11302208C01EB016A0179010E94C40084E80E94F8
S1130230BB0080E00E94BB0080E00E94BB00682EEF
S113024080E00E94BB00782E80E00E94BB00882ED4
S113025080E00E94BB00982E80E00E94BB00A82E84
S113026080E00E94BB00B82E0E94C800872D90E059
S1130270982F882786299C0122953295307F322732
S1130280207F322793FF02C02F5F3F4F359527957C
S1130290F80120833183892D90E0982F88278829BD
S11302A09C0122953295307F3227207F322793FF9D
S11302B002C02F5F3F4F35952795288339838B2DB7
S11302C090E0982F88278A29AC0142955295507F57
S11302D05427407F542793FF02C04F5F5F4F5595CB
S11302E04795F60140835183F801A081B1819D01B6
S11302F00E9488024B015C01A881B9819D010E9482
S11303008802860E971EA81EB91E9A01DA010E9461
S11303108802680D791D8A1D9B1D0E945400F701F7
S113032060837183DF91CF911F910F91FF90EF90C4
S1130330DF90CF90BF90AF909F908F907F906F9001
S11303400895CF93DF93CDB7DEB72897CDBFDEBF37
S113035019821A821B821C821D821E821F821886A9
S11303600E94FC010E94AF000E94F50083E10E94FC
S1130370E10090E00E94360288E19BE40E9465025D
S1130380A8959E01295F3F4FAE014B5F5F4FBE01B1
S11303906D5F7F4FCE0101960E9402018BE19BE4C9
S11303A00E94650289819A810E9436028FE19BE452
S11303B00E9465028B819C810E94360284E29BE448
S11303C00E9465028D819E810E94360289E29BE42F
S11303D00E9465028F8198850E94360288E19BE421
S11303E00E9465022FEF80E792E021508040904008
S11303F0E1F700C00000C4CF0F931F93A091221116
S11304000A2E000CBB0BBC5F27E534E00E949F0260
S11304108B019C01992324F401501C4F2F4F3F4F13
S1130420D901C801072E7AE0B595A79597958795C8
S11304307A95D1F7702DE0E2F8E080879187A0E407
S1130440B4E081E011968C93119782E012968C931C
S113045080EC868383E087831F910F9108959091A8
S1130460240895FFFCCF8093220808951F93CF930F
S1130470DF93CDB7DEB72A97CDBFDEBF9F938F93AF
S11304808EE29BE49F938F93CE0101969F938F936B
S11304900E94A6020F900F900F900F900F900F9054
S11304A010E003C00E942F021F5FE1E0F0E0EC0FB8
S11304B0FD1FE10FF11D80818111F4CF2A96CDBF7C
S11304C0DEBFDF91CF911F910895EF92FF920F93BA
S11304D01F93CF93DF937C01FC0101900020E9F787
S11304E031978F01081B190BC0E0D0E007C0F7015A
S11304F0EC0FFD1F80810E942F022196C017D107A7
S1130500B0F3DF91CF911F910F91FF90EF90089579
S11305100E949002332312F48A1B9B0B0C94A102B9
S1130520A29FB001B39FC001A39F700D811D112430
S1130530911DB29F700D811D1124911D08950E947B
S11305409002B7FF0895821B930B0895AEE0B0E0CC
S1130550ECEAF2E00C9467050D891E8986E08C8331
S113056009831A838FEF9FE78D839E83AE01475ED5
S11305705F4F6F89788DCE0101960E94C802EF818A
S1130580F885E00FF11F10822E96E4E00C948005AC
S1130590ABE0B0E0EEECF2E00C9459056C017B01A9
S11305A08A01FC0116821782838181FFCCC1CE01AE
S11305B001963C01F6019381F70193FD859193FF28
S11305C081917F01882309F4BAC1853239F493FDFE
S11305D0859193FF81917F01853229F4B60190E0E2
S11305E00E94BF04E7CF912C212C312CFFE1F3159D
S11305F0D8F08B3279F038F4803279F08332A1F478
S1130600232D20611DC08D3261F0803369F4232DC8
S1130610216016C0832D8260382EE32DE4603E2EC7
S11306202AC0F32DF8601DC037FC2DC020ED280F23
S11306302A3040F08E32B9F436FC81C1232D206477
S1130640322E19C036FE06C08AE0989E200D112471
S1130650922E11C0EAE02E9E200D1124222EF32D9D
S1130660F0623F2E08C08C3621F4832D8068382E2A
S113067002C0883641F4F70193FD859193FF81917F
S11306807F018111B3CF982F9F7D9554933028F427
S11306900C5F1F4F9FE399830DC0833631F083377E
S11306A071F0833509F059C021C0F8018081898334
S11306B00E5F1F4F88248394912C530113C028018B
S11306C0F2E04F0E511CF801A080B18036FE03C049
S11306D0692D70E002C06FEF7FEFC5010E94B40482
S11306E04C018201F32DFF773F2E16C0280122E032
S11306F0420E511CF801A080B18036FE03C0692D62
S113070070E002C06FEF7FEFC5010E94A9044C01A5
S1130710F32DF0683F2E820133FC1BC0822D90E044
S113072088169906B0F4B60180E290E00E94BF04F6
S11307302A94F4CFF50137FC859137FE81915F014E
S1130740B60190E00E94BF0421102A9421E0821A8D
S113075091088114910471F7E8C0843611F0893648
S113076041F5F80137FE07C0608171818281938170
S11307700C5F1F4F08C060817181072E000C880B2D
S1130780990B0E5F1F4FF32DFF763F2E97FF09C085
S113079090958095709561957F4F8F4F9F4FF0682E
S11307A03F2E2AE030E0A3010E94FB04882E861825
S11307B045C0853731F4232D2F7EB22E2AE030E058
S11307C025C0932D997FB92E8F36C1F018F4883542
S11307D079F0B5C0803719F0883721F0B0C0E92F1F
S11307E0E061BE2EB4FE0DC0FB2DF460BF2E09C027
S11307F034FE0AC0292F2660B22E06C028E030E05D
S113080005C020E130E002C020E132E0F801B7FE8B
S113081007C060817181828193810C5F1F4F06C084
S11308206081718180E090E00E5F1F4FA3010E9400
S1130830FB04882E8618FB2DFF773F2E36FE0DC055
S1130840232D2E7FA22E891458F434FE0BC032FCC3
S113085009C0832D8E7EA82E05C0B82CA32C03C0FE
S1130860B82C01C0B92CA4FE0FC0FE01E80DF11D87
S11308708081803321F49A2D997EA92E09C0A2FE8D
S113088006C0B394B39404C08A2D867809F0B39457
S1130890A3FC11C0A0FE06C0B21488F4280C922C4C
S11308A09B180EC0B21460F4B60180E290E00E947E
S11308B0BF04B394F7CFB21418F42B1802C0982CC9
S11308C0212CA4FE10C0B60180E390E00E94BF0476
S11308D0A2FE17C0A1FC03C088E790E002C088E52F
S11308E090E0B6010CC08A2D867859F0A1FE02C0B2
S11308F08BE201C080E2A7FC8DE2B60190E00E9489
S1130900BF04891438F4B60180E390E00E94BF0468
S11309109A94F7CF8A94F301E80DF11D8081B60112
S113092090E00E94BF048110F5CF222009F442CE4A
S1130930B60180E290E00E94BF042A94F6CFF6014B
S11309408681978102C08FEF9FEF2B96E2E10C9492
S11309507205FC010590615070400110D8F7809534
S113096090958E0F9F1F0895FC0161507040019077
S11309700110D8F7809590958E0F9F1F08950F93BF
S11309801F93CF93DF93FB01238121FD03C08FEFDE
S11309909FEF2CC022FF16C04681578124813581E8
S11309A04217530744F4A081B1819D012F5F3F4F4B
S11309B0208331838C93268137812F5F3F4F268399
S11309C0378314C08B01EC01FB010084F185E02D19
S11309D00995892BE1F6D80116968D919C9117976C
S11309E0019616968D939C931797CE01DF91CF9124
S11309F01F910F910895FA01AA27283051F120314F
S1130A0081F1E8946F936E7F6E5F7F4F8F4F9F4F9E
S1130A10AF4FB1E03ED0B4E03CD0670F781F891FE0
S1130A209A1FA11D680F791F8A1F911DA11D6A0FAE
S1130A30711D811D911DA11D20D009F468943F9161
S1130A402AE0269F11243019305D3193DEF6CF0160
S1130A500895462F4770405D4193B3E00FD0C9F726
S1130A60F6CF462F4F70405D4A3318F0495D31FD93
S1130A704052419302D0A9F7EACFB4E0A6959795E6
S1130A80879577956795BA95C9F7009761057105BC
S1130A9008959B01AC010A2E069457954795379506
S1130AA02795BA95C9F7620F731F841F951FA01D60
S1130AB008952F923F924F925F926F927F928F92FE
S1130AC09F92AF92BF92CF92DF92EF92FF920F93D9
S1130AD01F93CF93DF93CDB7DEB7CA1BDB0BCDBF1C
S1130AE0DEBF09942A88398848885F846E847D84AF
S1130AF08C849B84AA84B984C884DF80EE80FD80C2
S1130B000C811B81AA81B981CE0FD11DCDBFDEBF5F
S10B0B10ED010895F894FFCFF4
S1130B180A0D00583A200020593A2000205A3A2059
S10C0B280020413A20002564007C
S9030000FC
