S00B000050574D2E7372656325
S11300000C9448000C9465000C9465000C946500F5
S11300100C9465000C9465000C9465000C946500C8
S11300200C9465000C9465000C9465000C946500B8
S11300300C9465000C9465000C9465000C946500A8
S11300400C9465000C9465000C9465000C94650098
S11300500C9465000C9465000C9465000C94650088
S11300600C9465000C9465000C9465000C94650078
S11300700C9465000C9465000C9465000C94650068
S11300800C9465000C9465000C9465000C94650058
S113009011241FBECFEFCDBFDFE3DEBF18E3A0E026
S11300A0B8E3ECE5F3E002C005900D92A230B1078D
S11300B0D9F728E3A2E0B8E301C01D92AB30B20740
S11300C0E1F70E9493010C94AC010C940000E0E071
S11300D0F6E085E0808380E181830895813041F0FA
S11300E018F0823049F0089581E08093060608955F
S11300F08EE080930606089584E0809306060895B2
S11301000E946E0081E08093080680910B0688238C
S1130110E1F38091100690911106813F910510F052
S113012081E0089580E00895E0EAF4E091E09183AD
S113013082E0818396838683089590E08093280AE1
S11301409093290A089590E080932A0A90932B0AA9
S11301500895CF93DF9380E00E948000C82F81E050
S11301600E948000D82F82E00E948000CC2341F0BE
S1130170D11106C0811104C081E0809307381AC0F0
S1130180C11108C0DD2331F0811104C081E08093E6
S1130190063810C0C11108C0D11106C0882321F04F
S11301A081E08093053806C0109207381092063813
S11301B010920538DF91CF910895809104388130F1
S11301C071F018F0823099F00895109208388091F7
S11301D00738882389F081E080930438089580915A
S11301E00738811109C082E080930438089581E0C2
S11301F08093083810920438089580910338813030
S113020071F018F0823099F00895109209388091B5
S11302100638882389F081E080930338089580911B
S11302200638811109C082E080930338089581E083
S113023080930938109203380895809102388130F0
S113024071F018F0823099F0089510920A38809174
S11302500538882389F081E08093023808958091DD
S11302600538811109C082E080930238089581E045
S113027080930A381092023808950E94DD000E948B
S1130280FD000E941D01089580910A38882359F0C9
S1130290809101388F5F80930138843010F0109280
S11302A0013810920A3880910938882339F08091F6
S11302B000388A3F18F4865F8093003880910838AC
S11302C0882339F080910038882319F08A5080936C
S11302D0003880910138813071F028F0823099F033
S11302E08330D1F00895809100380E949D0080E011
S11302F00E94A300089580E00E949D008091003830
S11303000E94A3000895809100380E949D0080916E
S113031000380E94A300089580E00E949D0080E0C0
S11303200E94A3000895C0E0DAE08FEF90E08EA36E
S11303309FA383E3898385E08093E4050E9467009B
S11303400E94940081E08883A8950E94A9000E94DD
S10F03503D010E944401F8CFF894FFCF57
S105035CC803D0
S9030000FC
